:10000000C0550020653700004FE501005137000062
:100010005137000051370000513700000000000048
:100020000000000000000000000000003D3900005A
:10003000513700000000000009390000513700006E
:100040000D3B0000E92A02000D3B00000D3B0000C3
:100050000D3B00000D3B00000D3B00000D3B000080
:100060000D3B00000D3B00000D3B00000D3B000070
:100070000D3B00000D3B00000D3B00000D3B000060
:100080000D3B00000D3B00000D3B00000D3B000050
:100090000D3B00000D3B00000D3B00000D3B000040
:1000A0000D3B00000D3B00000D3B00000D3B000030
:1000B0000D3B00000D3B00000D3B00000D3B000020
:1000C0000D3B00000D3B00000D3B00000D3B000010
:0C00D0000D3B00000D3B00000D3B00004C
:0400DC00FFFFFFFF24
:1000E00053B94AB9002908BF00281CBF4FF0FF319F
:1000F0004FF0FF3000F00CB8ADF1080C6DE904CE04
:1001000000F008F8DDF804E0DDE9022304B07047F0
:10011000704700BF2DE9F04786468C460846089E8A
:10012000154674461946002B40F0C2808542B2FA4B
:1001300082F245D94AB1C2F1200300FA02FC2EFA3C
:1001400003F3954043EA0C0C94404FEA154EA8B2D5
:10015000BCFBFEF8230C0EFB18CC08FB00F943EAAD
:100160000C43994528D9EB1808F1FF3704D299457B
:1001700002D9A8F102072B44A3EB0903A4B2B3FBF5
:10018000FEFC0EFB1C330CFB00F044EA0344A042CF
:1001900014D92C190CF1FF3304D2A04202D9ACF1CE
:1001A00002032C44241A43EA07401EB1D440002322
:1001B00034607360BDE8F0874746DDE76346F1E7EA
:1001C00092BB431B01214FEA154EAFB2B3FBFEFCBD
:1001D000200C0EFB1C330CFB07F840EA0343984548
:1001E00062D9EB180CF1FF3004D2984502D9ACF17A
:1001F00002002B44A3EB0803A4B2B3FBFEFC0EFBEE
:100200001C330CFB07F744EA0344A7424ED92C19D0
:100210000CF1FF3304D2A74202D9ACF102032C4403
:10022000E41B43EA0040C0E7C2F1200320FA03F1D7
:10023000954090402EFA03F303434FEA154EAFB2B8
:10024000B1FBFEFC0EFB1C10190C0CFB07F841EA7D
:100250000041884504FA02F422D969180CF1FF30F4
:1002600004D2884502D9ACF102002944A1EB08016F
:100270009BB2B1FBFEFC0EFB1C110CFB07F743EA23
:1002800001439F420ED9EB180CF1FF3104D29F427B
:1002900002D9ACF102012B44DB1B41EA004192E799
:1002A0006046E3E76146F7E76046A3E76346B7E7E2
:1002B000834206D916B9002108467BE7C6E900E06B
:1002C000F9E7B3FA83F78FB9834201D3724508D8AF
:1002D000BEEB020460EB030301209C461EB9002123
:1002E00068E73846FAE7C6E9004CF8E7C7F1200CA2
:1002F000BB4022FA0CF41C432EFA0CF120FA0CF34A
:10030000B84001434FEA14490EFA07F5B3FBF9F878
:100310001FFA84FE09FB18300B0C08FB0EFA43EAA7
:1003200000439A4502FA07F240D9E31808F1FF307A
:1003300004D29A4502D9A8F102002344A3EB0A0390
:1003400089B2B3FBF9F809FB183308FB0EFE41EA4A
:1003500003418E452CD9611808F1FF3304D28E4534
:1003600002D9A8F10203214443EA0040A0FB02980D
:10037000A1EB0E014145CE46434602D306D14D4581
:1003800004D2B9EB020E68EB04030138002EA6D0AC
:10039000B5EB0E0261EB030101FA0CFC22FA07F344
:1003A0004CEA0303F940C6E9003198E74046C5E747
:1003B0004346D9E710F8012B11F8013B012A28BF69
:1003C0009A42F7D0D01A7047034611F8012B03F870
:1003D000012B002AF9D17047034613F8012B002A9C
:1003E000FBD1181A01387047F0B5414DD5F8683186
:1003F000996811F0010187B021D105AA40F60340A8
:1004000004F08EFF044600286FD10598C3681B785E
:100410009BB9BFF35B8FD5F8D430BFF35B8F05F189
:10042000D40203F00903BFF35B8F52E8001F42E8D8
:100430000034002CF9D1BFF35B8F15F053FC05AAF3
:10044000002141F2030004F06BFF044600284CD168
:10045000059B284EDA68D2F80100D2F8051003C6D1
:10046000184615F03FFC214605AA41F2010004F0B0
:1004700057FF0446002838D10598C3685A7885F894
:1004800070205A88A5F872201A7985F87120B3F87F
:100490000720A5F87420B3F80530A5F8763015F0DC
:1004A00021FC214605AA41F2020004F039FF04466E
:1004B000D8B9059FFA68531C413218685968344608
:1004C00003C4083393422646F7D10B481EF0CFF8F9
:1004D000384615F007FC95F87C305B0610D40748C9
:1004E00045211CF0FFFD6FF01204204607B0F0BD5F
:1004F0000000002078000020800000209C5E0200A8
:1005000005AA002142F2030004F00AFF0446002875
:10051000EBD1059BA64EDA68D2F80100D2F805109F
:1005200003C6184615F0DEFB214605AA42F202007A
:1005300004F0F6FE04460028D7D1059CE368B3F822
:10054000012091B249B1D97839B1A5F80421DA78FE
:10055000114606F1280023F0ACF8204615F0C2FB46
:1005600095F87C601F2316F02006A5F8203118D1DD
:10057000022140F66D4004F095FD0446002800F08D
:10058000CC8002210C3015F0EDFC01230370467085
:100590002146324640F66D4004F0C2FE0446002873
:1005A000A3D195F89C301F0712D505AA002142F26D
:1005B0001C0004F0B5FE0446002896D10598C368D7
:1005C000D3F80120D3F80530C5E9382315F08AFBAC
:1005D00095F8D8309E0624D50DF1120104A804F038
:1005E00007FF0446002880D1042142F2240004F0D1
:1005F00059FD0646002800F0908004210C3015F0CB
:10060000B1FCBDF810300380BDF8123043802246A3
:10061000314642F2240004F083FE044600287FF4B1
:1006200064AF95F8D8305C0610D505AA002142F2D7
:100630002A0004F075FE044600287FF456AF0598A2
:10064000C3685B7885F8223115F04CFB082142F233
:10065000010004F027FD044600285ED008210C307C
:1006600015F080FC95F8D81011F0400F024640F2CA
:10067000022308BF032388074CBF43F02C0043F03C
:100680000C0095F8D9308F0648BF40F0400013F0B9
:10069000090F95F8A23018BF40F4006003F006037C
:1006A000CE0748BF40F01000062B08BF40F4C070D2
:1006B00000211EF0C6F82146002242F2010004F09B
:1006C0002FFE044600287FF410AF95F87C30B5F873
:1006D0000411980624D4C9B905AA41F2050004F012
:1006E0001FFE044600287FF400AFB5F80431059CD6
:1006F0004BB9E368B3F80120A5F804219A882D4886
:10070000114622F0D6FF204615F0ECFA082140F6FB
:10071000014004F0C7FC044658B96FF06804E4E6F1
:100720000029F3D1244845211CF0DCFC6FF00404BF
:10073000DBE608210C3015F015FC95F8D830D90708
:1007400002462DD41D484FF000511EF07AF8214684
:10075000002240F6014004F0E3FD044600287FF447
:10076000C4AE014605AA4FF6014004F0D9FD58B3C6
:10077000134857211CF0B6FC1EF017FA0446002857
:100780007FF4B3AE07F0F4FA044600287FF4ADAE70
:10079000EB79002B78D10B4849211CF0A3FCA4E68F
:1007A00001A1D1E90001D0E790880002008000207B
:1007B000D800002008010020C55E02001088000259
:1007C000ED5E0200DF5F0200059E3348F468B4F876
:1007D0000130032B96BF314A314A52F82320492178
:1007E0001CF080FCB4F80120B4F80330022A2AD1AE
:1007F000052B28D82B4A52F823202B4849211CF0DE
:1008000071FC6379D4F809100291032BB4F8071036
:1008100098BF264A0191A17994BF52F82320204A1B
:100820002348009149211CF05DFC304615F05AFA2E
:1008300005AA00214FF6024004F072FD044620B1E3
:100840001C48572196E7164AD7E705981A4EC36801
:10085000B3F80130A6F8C13015F044FA96F8C1306B
:100860005B0789D505AA21464FF6034004F058FDE1
:1008700010B1124857217DE70598C3685B7886F868
:10088000C03015F02FFA77E708210D481DF0BEFFA4
:1008900005F0E2F829E600BF165F0200804302007F
:1008A000DE5D020068430200345F0200584302002C
:1008B000515F0200835F020000000020B15F020070
:1008C000D4000020000000002DE9F0470F46D0E9D9
:1008D00006A1D0F82090DFF8688001EB09043034DD
:1008E000A245164614A3D3E9002314D8A1FB08019E
:1008F000FFF7F6FB10A3D3E90023A4EB0A0420F0D2
:100900007F45A4FB0801FFF7EBFB20F07F403D6033
:100910003060BDE8F087AAFB0801FFF7E1FB20F09B
:100920007F4509F1300004A3D3E90023A0FB0801AF
:10093000E9E700BFAFF300808D49FD1A0700000012
:1009400000CA9A3B000000002DE9F04F8DB020B99D
:100950000DB0BDE8F04F0FF0DBB9BB4D95F86A3034
:10096000D90700F1408195F8293005EB8303DF6A50
:1009700095F8353005EB8303D3F838A097B13C46A2
:1009800014F8020BC0F380100CF02AFE0368C7F8BD
:1009900002308388A3803B785A060ED4AA48514679
:1009A00020F0E5FA3B7813F00E0F40F0A0802B6AA0
:1009B0005BB10C200DB0BDE8F08F062120461FF082
:1009C0003CFE0028EAD11220F4E70CF0DBFE804662
:1009D00030B10CF049FF814620B940460CF0D8FEFA
:1009E0000720E7E70FF020FC044618B948460CF052
:1009F00041FFF2E74FF6FF730385D0F8883000F12E
:100A00001C0B1BB900F18003C0F8883004F17C0294
:100A100004F17801D4F888001FF01AFE94F88E30A3
:100A200023F0070384F88E30B4F8763023F4EF63B4
:100A300023F0070343F48C7343F00103A4F87630EA
:100A400094F8393003F03F0363F07F0384F83930C2
:100A500094F83C3023F00703002684F83C304FF430
:100A6000C023C4F888312046C4E91266C4F88860FF
:100A7000A4F88C60E685266384F83B602665A4F8BC
:100A80008E61A4F8846121F06CF884F85061C4F898
:100A900054810FF011FD94F8943160F3020384F84F
:100AA00094310FF00FFD94F8943160F3C50384F88E
:100AB000943194F8803166F3410384F88031012148
:100AC00020460FF0F3FE04F1D40020F029FFC5E921
:100AD0001889C5F820B0C4E905662670E46113F0F2
:100AE0004BF920B158480EF095FE032062E795F8C7
:100AF00024300121C3F342030DF12B008DF82B307C
:100B00001FF0D2FD0246002800F091809AF80110F3
:100B1000384620F0E6F9002431234C492C70C5E911
:100B200002344B4B6C60A0FB0101C01841F107017E
:100B300043A3D3E90023C5E90544FFF7D1FAB5F88B
:100B40006860286120F0BBF800F109082EB93C78F4
:100B500004F00F04631E5C425C4195F824702B691D
:100B60003C4ADFF8F4A03D4964F3000785F824709F
:100B70004FF0020917F001070BACCDF82C9034D0E0
:100B800000201060CDE90431CDE90842CDE9000331
:100B90000321CDE9065ACDE9020043464A4620F03A
:100BA00054F821460DF076F8002840D12C4A0695DD
:100BB0004AF2D833CDE904020093CDE907A4CDE988
:100BC00002000190434601220321CDF82C9020F031
:100BD00043F821460DF05EF848BB95F86A3043F0C3
:100BE000010385F86A300020E4E603F24710106044
:100BF0001C48CDE904314FF0910CA6FB00014FF6E3
:100C0000FF73CDE90842CDE902730CFB06110CA37A
:100C1000D3E90023CDE9065AFFF762FA4346CDE94E
:100C200000704A460321384620F00FF8D1E72B6ABE
:100C3000002B3FF4BEAE04480EF0ECFDB9E600BF59
:100C40008D49FD1A07000000D41F002000CA9A3BFE
:100C50008C49FD1AC81F002079D70000FDF900005B
:100C600021F70000002AE78470B590F824308AB09C
:100C7000C3F342030D46044601210DF1230016463D
:100C80008DF823301FF010FD71780246284620F0C1
:100C900028F91D49A0FB01311C48181841F1070132
:100CA00017A3D3E90023FFF71BFA216905468D42FC
:100CB00020D2481B0021164A02230993A21A6C2352
:100CC000B2FBF3F2134B059309AE00230232CDE9D8
:100CD0000110CDE90333032106960093D2B21846E2
:100CE0001FF0D5FF31460CF0D5FF38B92561002043
:100CF0000AB070BDFBD9691A0020DCE70C20F7E7C9
:100D00008D49FD1A0700000000CA9A3B8C49FD1A64
:100D1000D41F002079D700002DE9F04F06468BB094
:100D20008A46012002219946154614F01FFD002233
:100D30000221804601200BF08FFD30460FF080FA33
:100D4000C71CFFB2364B00963A46012100200CF03A
:100D5000AFFB10F0FD0F0DD03249334840F63202A0
:100D60001BF0A2FE002383F31188BFF36F8F0323D0
:100D7000184602DF2D4CA5FB044527A3D3E9002329
:100D800020462946FFF7ACF9294B0896CDE90663C2
:100D9000284B0593336904934FF6FE730393264B58
:100DA00020F07F46A6FB03310722E01A02FB061162
:100DB00065EB01014FF47A720023FFF791F94FF0D0
:100DC000000BCDE90160CDF800A04B463A46012169
:100DD00058461FF041FF10F0FD0F0CD0114912488A
:100DE00040F647021BF060FE8BF31188BFF36F8F54
:100DF0000323184602DFB8F1000F07D001220221B9
:100E000010460BB0BDE8F04F0BF026BD0BB0BDE8AF
:100E1000F08F00BFAFF300808D49FD1A070000007E
:100E2000D5010100F77A02006C4B020000CA9A3B20
:100E3000810101003D3001008D49FD1A00000000D4
:100E40002DE9F0438468228D4FF6FF739A428DB0EE
:100E5000804600F0A780204621F00AF898F8143068
:100E6000012B2ED0022B32D00BBB94F88E3003F026
:100E70001803182B1BD1A18DB4F886218B1D9A4223
:100E8000C4BF931F5B1AB4F88211CCBF9BB2134648
:100E9000994208D0A4F88231B4F88231A4F88431A0
:100EA000A4F8882103E0B4F88831002BF4D094F83A
:100EB000507187B1394620460DB0BDE8F0430FF0C0
:100EC0008FBB0023A4F88831A4F88431EFE73D23D9
:100ED00084F85031EBE7E58D268E5DB33544002371
:100EE000CDE90A33B8F81030ADB2DBB194F939303E
:100EF000002B14DA40460AAA0BA904F1D409FFF723
:100F0000E3FC484620F047FD10B9FF200FF036FB08
:100F1000484620F040FD024670B10023238600239E
:100F2000A4F88A3198F81230D90711D50023A4F813
:100F30008E3115E0751CD2E7D4E91E011FF09DFB30
:100F40000028EAD194F83C305807E8D5A38DE5E7AE
:100F5000B4F88A314BB3AB4220D95B1BA4F88A3179
:100F6000B4F88E317BB1AB423ED95B1B9BB2002201
:100F7000062BA4F88E31228604D994F93930934295
:100F800001DA26B301270DF127022946204610F089
:100F90009DFA74302AD19DF8271000E03E212046AA
:100FA0000FF01EFB0DB0BDE8F083B4F88E31002BBE
:100FB000D6D1628D40F2E2435A43B4F88C3142F20A
:100FC000107101FB0323013BB3FBF2F3AFE7D4F84D
:100FD00078215308D20702D4C4F87831D3E743F01C
:100FE0000043C4F87831CDE70821D8E7B4F8883158
:100FF000A3B1AB4203D95B1BA4F888310EE00CF01F
:10100000EDFD014600284FD00023A4F88831238D40
:10101000C3801B23037100681FF093FEB4F8843172
:1010200023B1AB4242D95B1BA4F88431238E0FB9A4
:101030009E4242D05E1CB6B294F8D13013F001014A
:101040003DD1DDE90A23002B7CD10AB9002E76D0F0
:1010500000210D460B46228D3D48D4F81C8001919D
:1010600003320A990091CDE90470CDE90256CDF81A
:101070001880D2B2012100201FF009FE10F0FD0FF0
:1010800090D00CF02FFE80458CD0324932484FF47E
:10109000A3621BF009FD002383F31188BFF36F8F58
:1010A0000323184602DF7DE70123A5E70023A4F808
:1010B0008431204620F0BBFDB8E73E46BCE76FF325
:1010C000000384F8D13094F93930002B2EDA94F8EB
:1010D0007700012100F0070021F050FDB4F86E20E8
:1010E000B4F86C30DFF874C01D4D134403F2D5130F
:1010F00018440721E0FB0C5113A3D3E90023284631
:10110000FEF7EEFF2569DDE90A2320F07F408542E6
:1011100035BF411B2D1A002500212061002B9AD1DB
:101120000A4398D1002D91D0194694E794F876009F
:10113000C0F3C00100F0070021F01EFDCEE7002F34
:1011400086D12FE70D4686E78D49FD1A070000007E
:1011500045010100F77A02006C4B020000CA9A3B7D
:101160008C49FD1A000000002DE9F04F85B00446BF
:10117000BDF844900393CDE90112BDF838A020F0EA
:10118000E7F8A368D4F80C61A0EB0905002B8346AF
:10119000ADB209DAE168626823F0004391422CBFE6
:1011A0007618B618A360F61A638D634F13FB05F328
:1011B0009BB2B3FBFAF11AFB01F080B283421FFA33
:1011C00081F840F2E24280F09480C01A5043A0FBC4
:1011D000070157A3D3E90023FEF782FF20F07F40E9
:1011E0000644E38DB4F814211344994494F839303B
:1011F000A9EB0B09C14440F2E24BDB09A4F82E90A5
:101200000BFB0AF900F08280226CA36C02FB153301
:10121000A36421F0E5FC054694F87401C0F3420094
:1012200012F0F8FD029A454B05440BFB02F22265D1
:1012300009FB05F50022C4F87C2105F57425A26C94
:1012400005F23F25B5FBF3F54FEA590305FB08F01E
:10125000963B0244256463649A4294BFA264A364EB
:10126000A0FB070132A3D3E90023FEF739FF039B5C
:10127000361AB3FBFBF00BFB00F0A0FB07012CA31D
:10128000D3E90023FEF72CFFA9EB050520F07F47EB
:10129000BDF83C30A385BDF84030A4F88C314946F8
:1012A0002046A4F82AA010F047F9A18D244A881DF1
:1012B0004A44B2FBF9F293B29842A4F886313EBF99
:1012C0005B1A063B9BB2A4F88231019B13B1002349
:1012D000A4F88E3133462A4639462046FFF71CFDD6
:1012E00094F8803143F0010384F8803105B0BDE803
:1012F000F08F0AFB113080B25043A0FB07010CA312
:10130000D3E90023FEF7ECFE361A6AE70D490E48D2
:1013100040F6BD021BF0C8FB002787F31188BFF31E
:101320006F8F0323184602DF4D46B1E7AFF300800D
:101330008D49FD1A0700000000CA9A3B40420F0089
:101340007FC3C901F77A02006C4B02000000000065
:101350002DE9F04F834693B0144690F81C900A682C
:10136000D0F81E0010900F46BBF82210ADF84410C4
:1013700012AB13E90300ADF83C105946D2F800A0B7
:1013800051F82E3B0E902246BBF82E0052F8085B17
:10139000208189789170DBF82A206260DBF83A209E
:1013A000A26104F118009BF83E20027105210B9305
:1013B0001FF07AF9627F00F03F0060F30502627768
:1013C0009BF83F20C2F30401A177BBF83410E18100
:1013D0000128C9F3801902F01F028EB205D91B3211
:1013E00002F01F020B2A00D8CEB90021CAF814104F
:1013F00094F820200B9861F3000284F82020012546
:10140000DBF80C408BF8045059460CF0BBFB20680D
:101410002571214613B0BDE8F04F1FF092BC3A6829
:1014200000215160BBF836202282BBF832300C9389
:101430002846B4F80E8020F0CDFB9BF83F2095F8AD
:101440007411520962F3430185F8741121F0C8FB4D
:101450000D9095F87401C0F3420012F0DBFC0D9A78
:1014600040F2E24606FB08F8104408FB00F000F5E5
:1014700074209F4A00F23F20B0FBF2F04FEA58027E
:10148000963A6062A2629BF831207243A263BBF875
:101490003820A5F88C214146284610F04DF8954992
:1014A000954AC5F890214144B1FBF8F188B2A5F8FE
:1014B0008601228A961DB042C1BFC2F57F42FA3230
:1014C000121890B2A5F882016268C5F878215A46D0
:1014D00012F81C6FD207C6F340160CD5874988480E
:1014E000F8221BF0E1FA002282F31188BFF36F8F1C
:1014F0000322104602DF4FF48072ABF81C200E98D6
:10150000BDF83C208BF81E90CBF81F00ABF82320D1
:10151000E289ABF82620228AABF82820B5F88C2186
:10152000ABF82A2095F87421C2F342028BF82C20E4
:1015300028460EF085FEA081ABF80600D7F804908F
:101540000B9859460CF01EFBA389A9F806301C2302
:10155000D9F800B089F8043046B1637F43F0400306
:101560006377201D21F0A2FA0126E08389F81C6030
:10157000494658461FF0E5FB94F85B00B4F85090DC
:10158000B4F85260012100F0070021F0F7FA834619
:1015900006EB0900DFF86CC15B4E00F2D510584431
:1015A0000721E0FB06C14FF0000931236046C5E981
:1015B0000193C5F80C904CA3D3E90023FEF790FDEE
:1015C00020F07F402861F9680C9A646A40F2E24397
:1015D0000120A8EB040403FB02184A4602210BF089
:1015E0003BF950460EF072FB08F2B248A8EB0B082C
:1015F0003DA3D3E900238346A8FB0601FEF770FD57
:10160000BB684249009120F07F483A3B0BF102024F
:101610004344D2B20121CDF804A048460BF082FF2A
:10162000514611F0EFFC9AF82430DB0707D5012270
:10163000CDF800904B46114648460BF039FF28463E
:101640000EF0FEFDA4FB064627A3D3E90023814646
:1016500031462046FEF744FDBB68A3F13A0A40F24A
:10166000D11308932A4BCDE906532A4B05932B69D6
:101670000493294B20F07F45A5FB03310722E01A94
:1016800002FB051166EB010109F103074FF47A72C1
:101690004FF000090023CDF80C90FEF721FDFFB2BA
:1016A000CDE90150CDF8008053463A460121484625
:1016B0001FF0D2FA10F0FD0F0CD0104910484FF473
:1016C000E9721BF0F1F989F31188BFF36F8F0323DF
:1016D000184602DF01220221104613B0BDE8F04F88
:1016E0000BF0BAB8AFF300808D49FD1A0700000077
:1016F00040420F007FC3C901404B4C00AA7D02004D
:101700006C4B02008C49FD1A00CA9A3B053001005F
:10171000D92F01003D3001008D49FD1A0000000065
:101720002DE9F04F8FB0DFF8F0800B900DF137010D
:101730000DF136001FF00CFB384F9DF836A09DF8D8
:1017400037B01FF0BCFAD8F800400A90A4FB075449
:101750002FA3D3E90023002621462846FEF7C0FC2C
:101760000B9B0693CDE907662D4B05938146D8F870
:10177000040027A3D3E90023A0FB0701FEF7B0FC78
:10178000284B29F07F47A7FB033120F07F40072239
:10179000CDE9036002FB0711E81A64EB01014FF485
:1017A0007A720023FEF79CFC0A9B0096CDE901703B
:1017B0005A46032150461FF04FFA10F0FD0422D183
:1017C000194A1A48002318F06DF8A0B19DF8372087
:1017D0009DF836000094234603210BF069FE10F0BB
:1017E000FD0F0DD012491348E4221BF05DF910489B
:1017F000E4211BF050F9D8F80C000FB0BDE8F08FD1
:101800006FF07300F9E76FF08B00F6E7AFF300803D
:101810008D49FD1A070000008C24002000CA9A3B65
:10182000113301008D49FD1A447B0B007424002004
:10183000FF7D02006C4B020038B50F4D04461FF0CF
:101840003EFAA9681FF03DFA6968B0FBF4F404445D
:101850000A4807A3D3E90023A1FB0001FEF740FCDF
:1018600020F07F40844294BF0020012038BD00BF9B
:101870008D49FD1A070000008C24002000CA9A3B05
:10188000014B02221A707047582B0020084B07B5F5
:1018900001221A7000220023CDE90023054841F6F9
:1018A0009A1200231AF082F903B05DF804FB00BF1E
:1018B000582B002028050020CA0738B504460D46DD
:1018C00008D50B4B0B4910F0010F08BF19460A4809
:1018D00001F014FBAB070AD5064B0549074814F085
:1018E000020F18BF1946BDE8384001F007BB38BDEC
:1018F0006849020060490200D440020060400200D2
:1019000010B586B0002105AA41F2090003F008FDD8
:10191000014620B10B481BF0B1F806B010BD059B85
:10192000D868447803794279817902948478019463
:10193000C078009004481BF0A1F8059814F0D2F983
:10194000EBE700BF714902009849020010B50C484E
:101950001BF094F816F0CCF8014620B109481BF0B2
:101960008DF8002010BD084816F0F6F8044600284F
:10197000F7D0014605481BF081F805482146EEE7FF
:10198000CB490200D8490200B9180000F34902000F
:10199000124A020008B5002004F0C4F8014620B144
:1019A00007481BF06BF8002008BD0BF029FE054826
:1019B0001BF064F81BF0C6FBFFF7A2FFF3E700BFC4
:1019C0002F4A02004F4A020030B50E4B0E4D042242
:1019D000C3F80C25D3F80C350FCD89B003AC0FC478
:1019E0002B6823600123094900930222084B03A8B6
:1019F00004F020FF014610B106481BF03FF800201C
:101A000009B030BD00100040703F0200504002009D
:101A100048400200664A020038B50D4C2578012D79
:101A20000BD1FFF7D1FF0B481BF028F82946002007
:101A300016F018F90323237038BD022DFCD11AF0DB
:101A400002FF05481BF01AF800210846F0E700BF26
:101A5000582B00208C4A0200A04A020007B5002340
:101A60004FF480320348CDE900231AF09FF803B009
:101A70005DF804FB6005002010B5094C0A44914252
:101A800000D110BD11F8013B584003090001E35C8F
:101A9000C0B2434018091B01205CDBB25840EEE79E
:101AA000394B020038B551B302680B1F9B1AD90895
:101AB00023F0070313445C88E00708D41049114859
:101AC000AF221AF0F1FFAF210D481AF0E4FF1046E3
:101AD0001AF0BBFE084432F83050401B814206D059
:101AE00007490848B7221AF0DFFFB721ECE724F0D6
:101AF00001045C80BDE8384010461AF063BF38BD71
:101B0000494B02006C4B02002DE9F8434B1E0B4081
:101B100006680F46144611D0C1F1000909EA01090F
:101B20004A46042A03F1FF3128BF042219420CD18E
:101B30001F46C4B900252846BDE8F88304290FD8FC
:101B4000BDE8F84311461AF06EBF2B492B484FF4FD
:101B5000A2721AF0A9FF28484FF4A2711AF09BFF55
:101B600099460422E5E7B368B3EBD40FE2D904F158
:101B70000B013944891AC90830461AF0BCFE804668
:101B80000028D7D009F1040505EBC0057B1E3544BC
:101B90001D44B5FBF7F57D43A5EB09052C442B1F30
:101BA00007349B1B24F00704A41BB0EBD30F4FEAB0
:101BB000D3074FEAE40408D201463A4630461AF009
:101BC000E7FE414630461AF045FE394630461AF0E7
:101BD0003CFE3844844207D2304622461AF0D8FEF2
:101BE000214630461AF036FE06EBC706738843F0EE
:101BF000010373809FE700BF494B02006C4B02005A
:101C0000B2F5802F2DE9F0410AD33449344840F22F
:101C1000EB121AF049FF40F2EB1130481AF03BFF8B
:101C2000042A08D82D492E484FF4F9721AF03CFFC7
:101C30004FF4F971F1E7043ACD1D8E1825F0070530
:101C400026F00706761B172E4FEAD60708D8234939
:101C5000234840F2FB121AF027FF40F2FB11DCE7A9
:101C6000B7FA87F4C4F12002C4F12404A4000734B5
:101C7000E408631C4FF00008BB420560AF60C5F884
:101C80000C8008D9154916484FF403721AF00CFF5E
:101C90004FF40371C1E74146920005F1100021F0B5
:101CA0004AFF630043F001036B8005EBC4023B1B5A
:101CB0005900A5F800805180AA1925F83440A2F8EF
:101CC0000280AB5305EBC70321465A8842F001025C
:101CD0005A802846BDE8F0411AF0BCBD494B0200CD
:101CE0006C4B0200014B1B68184700BF900100209D
:101CF00030B585B004460D4610220021684621F01B
:101D00001AFF02238DF802302A46044B0193214624
:101D100068461AF02BFB05B030BD00BFE51C000083
:101D2000014B1860704700BF9001002080B5054648
:101D30000E461746984619F0CDFA034621F00CFFDF
:101D4000DFF81890044649F80030424630463946DC
:101D5000A84754F8090001F085FD00BF0800000005
:101D60002DE9F84F04460846A38B1907164612D4EE
:101D7000022803F0070162D120461AF01BFF88B148
:101D80000138042800F22581DFE810F05900230112
:101D90007E00C800F50001280CBF43F0100143F09D
:101DA0002001A18304F1140019F01CFC002800F0AC
:101DB000AB8086F31188BFF36F8FBDE8F88F03F017
:101DC0000702501F01281ED80020062A2768C4E9F0
:101DD000000014D13A4603E0E08B0130E083126842
:101DE000002AF9D123F0070343F00202A283204620
:101DF0001AF0E0FE90B342F02002A2832EE023F01E
:101E000007039AB2F2E7042A33D123F007039AB208
:101E1000A28320461AF0CEFE10B142F02002A28327
:101E2000A38B03F00709894540F0DC80A18BCA062B
:101E300040F1218121F01003A38301F00701D4F8C0
:101E40001880A38BB8F1000FB9DA0022276823F0BD
:101E50000703C4E9002243F00103A383A38B03F02B
:101E60000709894540F0BF80002FDFD00025AA4632
:101E700040E08549854840F21B121AF015FE40F2F9
:101E80001B1181481AF007FE41B17F497F484FF48A
:101E9000AB721AF009FE4FF4AB71F2E7236843B955
:101EA00079497A4840F257121AF0FEFD40F2571174
:101EB000E7E723691D6845B9734974484FF4AD726B
:101EC0001AF0F2FD4FF4AD71DBE7A38B23F00703AB
:101ED00043F006039BB2A3830F4688464FF00609E2
:101EE000A268002A40F08180002F40F08180002D00
:101EF0009CD0BA4643F0080304F1140BA383584660
:101F000019F070FB002875D16149604840F2311228
:101F10001AF0CAFD40F231115D48B3E7022908D03A
:101F200059495A4840F25D121AF0BEFD40F25D1167
:101F3000A7E7E78B47B1544954484FF4AF721AF002
:101F4000B3FD4FF4AF719CE723695D6845B94E4915
:101F50004E4840F261121AF0A7FD40F2611190E77D
:101F6000A38B23F0070343F004039BB2A383B8467B
:101F70004FF00409B4E7012908D0434943484FF41E
:101F8000B2721AF091FD4FF4B2717AE7236843B947
:101F90003D493E4840F265121AF086FD40F2651157
:101FA0006FE723699D6845B9374938484FF4B472E3
:101FB0001AF07AFD4FF4B47163E7A38B23F00703A3
:101FC00043F005039BB20027A383B8464FF00509F1
:101FD00086E72D492D4840F26B121AF065FD40F25C
:101FE0006B114EE7002700257AE74FF0010A81E7E1
:101FF00092467FE786F31188BFF36F8FBAF1000F27
:1020000016D147BB15B123492046A847EFF31186E7
:10201000202383F31288BFF36F8F584619F0D4FA48
:1020200008BB1B49194888221AF03EFD882173E736
:10203000A1680029E5D00E680029E2D0D1F804A0FB
:1020400043464A462046D0471EB1336831461E46B5
:10205000F2E73346FAE7394643464A4620463F68A8
:102060001AF0D4FDCDE7584619F0D2FAA38B23F02D
:102070000803A383DAE68B067FF594AE21F02003F4
:10208000A38301F0070177E6954B02006C4B020039
:10209000BA4B020099200000F8B504460D4600F145
:1020A0001406EFF31187202383F31288BFF36F8F99
:1020B000304619F089FA40B909490A4888221AF0CD
:1020C000F3FC074888211AF0E6FC304619F0A0FA24
:1020D000A5613A4620460121BDE8F840FFF740BE21
:1020E000BA4B02006C4B02002DE9F04704460F4644
:1020F0001AF07CFD051E5DDB04F11409EFF3118A73
:10210000202383F31288BFF36F8F484619F05CFADF
:10211000804638B93349344888221AF0C5FC8821F2
:1021200030483CE0484619F073FAE38BA68B4FF633
:10213000FF72934206F007063FD0022E10D1013302
:10214000E3833546484619F04DFA00283BD125492E
:10215000254840F231121AF0A7FC40F23111DFE7B6
:10216000062E13D8DFE806F0092C12120904090024
:102170006FF085054FF00008E4E700233B606368DB
:102180007BB9C4E900777EB13546F3E717491648B5
:102190004FF4E4721AF088FC14484FF4E4711AF01A
:1021A0007AFC1F606760EEE7524602212046FFF787
:1021B000D7FD35462846BDE8F0876FF00A05D9E718
:1021C0006FF00405D6E78AF31188BFF36F8FB8F17B
:1021D000000FEFD000233246394620461AF016FD94
:1021E000E8E700BFBA4B02006C4B0200954B0200BF
:1021F000F8B5054600F11406EFF31187202383F3A9
:102200001288BFF36F8F304619F0DEF938B92049D4
:10221000204888221AF048FC88211D4825E03046D5
:1022200019F0F6F9AC8B04F00704022C12D0012C43
:102230000CBF6FF004046FF08504304619F0D2F93A
:1022400008BB1349134840F231121AF02DFC40F23A
:102250003111E2E7EB8B53B90F490E4840F2EF1210
:102260001AF022FC0C4840F2EF111AF014FC013B6A
:102270009BB2EB83002BE0D13A4621462846FFF77C
:102280006FFD2046F8BD87F31188BFF36F8FF8E725
:10229000BA4B02006C4B0200954B020008B5426835
:1022A000816002F00302022A03460AD0032A4FF09B
:1022B000000103D0012A0AD1596006E0186859606C
:1022C00008BD186800225A6050B90020F8E7064996
:1022D000064845221AF0E8FB034845211AF0DBFBCB
:1022E00019F038FFF1E700BFE74B02006C4B02002A
:1022F0002DE9F7430F4606460821C06ADFF85090E3
:102300001AF02BFD3C68241A80463C6004EA09055B
:10231000AC4203D8002003B0BDE8F08308236A462E
:10232000214630461AF0B0FC0028F4D16946304608
:102330001AF01DFD40B1BDF80230BDF804203C602C
:1023400005EA090513441D44A4EB0804E0E700BFB7
:102350000000FFFF2DE9F047044688B000F11407A4
:10236000384621F06DF9A06A8368DB689847E0621F
:1023700048B9AC4845211AF0B5FE6FF0150528465E
:1023800008B0BDE8F087A06A8368DB6898470368F7
:10239000013B1F2B02D9A4484521ECE7A06A216824
:1023A00005AA20F064FF10B1A0484521E3E7A58904
:1023B0002DB1069BB5FBF3F203FB125515B19C48FA
:1023C0004521D8E7E389012B02D89A484521D2E775
:1023D000E36A009593F804904FF0FF334FF0FF321B
:1023E000384616F0E7FFE06A08211AF0B6FCA84666
:1023F0000646E3891FFA85FA534508D8E389434521
:1024000023D1384617F08CF86FF02C05B7E7A18977
:102410002B04891B13FA81F14A46082320460091B8
:102420001AF040FC78B1694620461AF080FC08F1A9
:102430000108009908234A4620461FFA88F81AF036
:1024400031FC0028DAD00135D3E753450BD1009990
:1024500008234A46891B20461AF024FC18B969460D
:1024600020461AF064FC69462046FFF741FF054606
:1024700018B1384617F054F881E7009B63604FEAC3
:1024800013484FEA0848C4F80880D4E90113994278
:102490000FD3082301AA20461AF0F6FB05460028B0
:1024A000E7D101AB13F8012B91453CD10135082D43
:1024B000F8D163681B0C1B046946204600931AF090
:1024C00036FCA38900994A4620461AF0EBFB051E0C
:1024D000CFDB636869D006EB03084FF6FF79A38969
:1024E000CDF800801FFA88F29B1B9A4237D35248DE
:1024F00049211AF0F7FD616820461AF0FEFB0546F7
:102500000028B6D163684D4AA18913400B44A3EB60
:10251000460363601340A36020461AF00BFD054696
:10252000002D5ED0A5E701A920461AF020FC6268C4
:1025300010B9921B6260A8E7BDF80850BDF80610FC
:10254000E06AC4F8088029441AF007FC404490422D
:10255000A060EED1002DECD06FF01C057AE00823CE
:1025600003AA414620461AF08FFB0546002880D179
:1025700003A920461AF0FBFB38B1BDF80C304B45DF
:1025800003D1BDF81030002B6AD0B044A7E75B1A26
:102590004A4620461AF086FB051EFFF66AAF08D0B1
:1025A000E26AA36812681344A360D4E901318B4244
:1025B000EDD86168A38901EB46029A42B0D1DFF8F9
:1025C0007C80A26801EA08039A42A9D020461AF04A
:1025D00094FB054600287FF44CAF636803EA0803C8
:1025E000A360A389A288A3EB46039A422ED0384663
:1025F00016F096FF0123E289114823744921A3892B
:102600001AF070FD62680F4893B24921120C1AF05B
:1026100069FDA2680C4893B24921120C1AF062FDC0
:102620000025ACE6264C02004D4C02006F4C020027
:102630008C4C0200A54C0200164D02000000FFFF6A
:10264000CD4C0200E94C0200004D020020461AF079
:102650005AFC0546384616F063FF002DCAD08EE6B8
:10266000084849211AF03EFD63681B0C1B046946AB
:10267000204600931AF05BFB009920461AF03DFBC0
:102680004DE700BF424D02002DE9F04F1D4691B0CD
:10269000037C0291044600924BB9744845211AF01C
:1026A00021FD6FF00C06304611B0BDE8F08FC26A14
:1026B000082110461AF051FB2946019010461AF0E5
:1026C0004CFBA389019AA3EB82039D42074600F2CB
:1026D000C9801DB1009B002B00F0C4806368059386
:1026E00006AA05A92046DDF814A01AF078FB0646D4
:1026F0000028D8D1BDF81830029A934206D06268FB
:10270000059B9A42ECD1002D36D1CCE706A9204694
:102710001AF02DFB0028F2D0BDF81A80BDF81C304D
:1027200045B3AB4228D1E36ADDF800B01B684FEA3D
:102730001A4A5B424FEA0A4A03F02003D04403934B
:10274000AA46DDF80C90D14528BFD1464B4608AAD1
:10275000414620461AF098FA00284ED14A4608A968
:10276000584621F045F938B9BAEB090AC844CB44B8
:10277000E7D198E7002B96D0002F41D104F114093E
:102780004FF0FF324FF0FF33484616F013FEDFF8EC
:10279000E0B04FF6FF7AE3899E4260D0D4E9012190
:1027A0007B189A4230D3029BADF82030FF23009A69
:1027B0008DF8263020462B46ADF82210ADF8245077
:1027C0001AF057FB29468046E06A1AF0C6FAA2685A
:1027D0000244A260B8F1000F0AD108A81AF0B4FAB6
:1027E00008A920461AF07EFB002814BF8046A846A0
:1027F000484616F095FE464655E7BDDC064652E7CC
:10280000019B1F44BFB2B9E70821E06A1AF0A5FA9C
:102810000023ADF824301318ADF82230A389ADF8A9
:1028200020A002EA0B021A44101A606008A88DF872
:1028300026A01AF089FA08A920461AF053FB211D98
:1028400020461AF074FA636803EA0B03A36020467B
:102850001AF070FB80460028CAD101369BE76FF062
:102860001B08C5E76FF015061DE700BF0D4C020001
:102870000000FFFF2DE9FF471E46037CBDF83090A6
:1028800004460F46904643B92C4845211AF02AFCCD
:102890006FF00C0004B0BDE8F087C06A08211AF0A0
:1028A0005CFAA389A3EB40039E4243D8D4F804A06A
:1028B000CDF804A00025A9455146DDF804A009D2B1
:1028C000636853451ED1BDF80830BB421AD06FF083
:1028D0000100DFE702AA01A920461AF080FA0028C9
:1028E000D8D1BDF80830BB4206D102A920461AF063
:1028F0003EFA08B10135ADB26268019B9A42DAD165
:102900005146E0E7BDF80C30002BE0D0A945DED8F9
:10291000BDF80A00090CB3424FEA014128BF334613
:102920000144424620461AF0AFF90028B2D1BDF862
:102930000C00AFE76FF01500ACE700BF0D4C0200D4
:10294000014B0360002070474841020070B5114BF5
:102950001C680D46DCB1104B196800238B4202DB6A
:102960006FF0010070BD224612F8106B864202D053
:1029700001331446F2E7E06810B96FF01200F1E796
:1029800020F011FE0028F8D02C600020EAE76FF05C
:102990000C00E7E7940100204841020070B588B0C0
:1029A00005460C46C0B269461646FFF7CFFF002821
:1029B0001BDB0098C8B143680293836822680195C5
:1029C000CDE903360023CDE906230593C5681AF047
:1029D00096FB6DB12846084901AA20F04CFC0798E7
:1029E00008B9059B236008B070BD6FF01500FAE7C9
:1029F0006FF01200F7E700BF01D101002DE9F041AF
:102A00000F4B1C6805460E461746ACB14FF0FF321F
:102A10004FF0FF330B4816F0CDFC63683246D3F815
:102A2000088029463B462046C0470446054816F024
:102A300077FD2046BDE8F0816FF00104F9E700BFA3
:102A4000381200202006002000230360044B5A683F
:102A500012B9C3E90000704710605860704700BFAA
:102A60003C120020014B1860704700BF3812002054
:102A700030B585B000230546CDE9023301904FF013
:102A8000FF330C484FF0FF3216F094FC0A4B1C68E1
:102A90004CB9284600F0DCF80446064816F040FD24
:102AA000204605B030BD636820461B6801A99847E1
:102AB0002468EDE7200600203C1200201FB5CDE978
:102AC000010103924FF0FF330A484FF0FF3216F036
:102AD00071FC094B1C682CB9064816F021FD2046F4
:102AE00004B010BD636820461B6801A9984724689C
:102AF000F1E700BF200600203C120020024B00221C
:102B0000C3E90022704700BF3C120020024B0022A4
:102B1000C3E90022FFF7F2BF441200202DE9F7437A
:102B200007460C4609B100230B60244DDFF8909056
:102B300000264D4520D923492348942219F0B4FF9B
:102B40002048942119F0A7FFD5F8008001AA41463A
:102B500038461AF0FEFA50B116B954B92E4606E0BE
:102B60003168002240461AF0F4FA0028F5D11435F5
:102B7000DFE7019B2360F1E7E6D3144B1D68C5B185
:102B800055F8148C01AA41463846143D1AF0E1FA72
:102B900050B116B954B92E4606E0316800224046BD
:102BA0001AF0D7FA0028F5D16D69E8E7019B236098
:102BB000F1E7304603B0BDE8F08300BFF03E02000D
:102BC000683F0200634D02006C4B0200441200207B
:102BD0002DE9F341DDF82080019004460D461646AC
:102BE0001F46B8F1000F07D0D8F80010C1B9D8F8C7
:102BF00004E0BEF1000F1CD101A92046FFF78EFFB3
:102C000098B1D0F8088001983B4632462946C04723
:102C1000034650B10D48224645211AF063FA04E0FC
:102C200001AA1AF096FA0028E1D1002002B0BDE80E
:102C3000F081D8F808300198089332463B4629467F
:102C4000F44602B0BDE8F041604700BF954D020078
:102C5000F8B51D4C1D4F06460025BC421BD91C492A
:102C60001C48F42219F020FF1948F42119F013FF31
:102C70002EB9E3685BB9284614340546EDE72068B1
:102C8000002231461AF065FA0028F2D1F3E798479E
:102C9000002DF0D1F0E7EBD30F4B1C6894B1143C3E
:102CA0001EB9E3684BB96469F8E720680022314631
:102CB0001AF04FFA0028F4D1F5E79847002D08BF25
:102CC0000546F0E72846F8BDF03E0200683F0200E6
:102CD000634D02006C4B02004412002038B50C4DCD
:102CE0000C484FF0FF334FF0FF3216F063FB2B78A8
:102CF0003BB9FFF70BFF00F06DF8044610B9012354
:102D00002B700024034816F00BFC204638BD00BF92
:102D1000592B0020200600202DE9F047048FDFF812
:102D2000B0A0013498B006468946A4B200F1080765
:102D3000651EADB2B5F5004F47D04A2305AA294616
:102D400038461AF0C8F904F57F543F34A4B28046DF
:102D5000214601230DF10B0238461AF0BCF9B8F1F7
:102D6000000F014610DC002810DC338FAB4209D184
:102D700032466B1E22F8383F4FF40041022338469A
:102D8000FFF782FC2C46D3E7002808DC29463846AA
:102D90001AF09DF9214638461AF099F9E5E708F14D
:102DA00060030DEB0308002308F84C3C5246CDF8B5
:102DB000009003AB05A80397ADF81040FFF708FF9C
:102DC0000028DFD018B0BDE8F0870020FAE700BF88
:102DD000C3D101007FB50123694604200193FFF7A9
:102DE000B5FD044660BB02AA01A90420FFF7D6FD89
:102DF000044610B110F10C0F22D10399B1F5803FB8
:102E000023D2009A002394681846084484421AD3B7
:102E10000133082BF9D10E4DA982EB825368AB60C8
:102E20002846D368EB631AF064FA044640B9094EA9
:102E30006E602846FFF708FE28466E60FFF712FE18
:102E4000204604B070BD9BB2E5E76FF02004F7E7C1
:102E50004C1200209801002008B5054819F00EFE1C
:102E6000044819F00BFEBDE80840034819F006BEFF
:102E7000BF4D0200F34D0200264E02002DE9F04343
:102E8000CC68064685B020680D461746984640F641
:102E9000CD42002316F08EFA002808DA15491648AC
:102EA000222219F001FE2221124819F0F4FDD4E982
:102EB0000119484620F0CEFDBDF83030009380B2B5
:102EC000CDE90190294643463A4630461CF08DFE36
:102ED0000546206816F024FB002806DA0549064856
:102EE000292219F0E1FD2921DEE7284605B0BDE8D9
:102EF000F08300BF544E02006C4B020070B50368B3
:102F0000DD68064686B028680C4640F6CD420023B0
:102F100016F050FA002808DA1C491D48352219F02D
:102F2000C3FD3521194819F0B6FD6A68A868214625
:102F300020F080FD2046FDF74FFA6B68984203D9D8
:102F4000144857211AF0CEF8286816F0E9FA00283C
:102F500006DA0E490E48422219F0A6FD4221E1E7A9
:102F600069683668204620F075FD18220546002164
:102F7000684620F0E0FD69460020CDE90164ADF827
:102F80000C5007F061FB06B070BD00BF544E02004C
:102F90006C4B0200854E0200014B1868704700BF61
:102FA000AC010020F0B5082289B01AF072FBCB6AA0
:102FB00003930B6B04934B6B05938B6B0693CB6B5B
:102FC000079313466A460C460646002711461046EC
:102FD000CDE9017700971AF06FFA31460546304681
:102FE0001AF06AFA216B0391616B0491A16B059150
:102FF000E16B0544CDE90617104611461AF05CFA5C
:103000003146054430461AF057FA0544206A0090CC
:10301000606A0190A06A0290A06B0690E06B079036
:103020003046CDE9047703971AF046FA0544606A02
:103030000090A06AD4F838C00190E06A0290CDF800
:1030400010C0606BD4F83CC00390CDE905C0206A85
:10305000079030461AF030FA0544E06A0090206B81
:103060000190606B0290206A0690A06A079030463B
:10307000CDE9047703971AF03FFB236B0093636B52
:103080000193A36B0293E36B0393636A0693E36A72
:1030900007932D1A082330461AF02EFB636B00931A
:1030A000A36B0193E36B0293236A0393636A049314
:1030B000A36ACDE90537236B07932D1A0823304601
:1030C0001AF01AFBA36B0093E36BCDE90137636A37
:1030D0000393A36A0493E36A0593636B07932D1A22
:1030E000082330461AF008FB2D1A10D40D4C35B9C0
:1030F0000822314620461AF0D8FA01280FD00823BA
:103100002246314630461AF0F7FA2D1AEFE7054A03
:103110000823314630461AF0CFF92D18F8D409B0FB
:10312000F0BD00BFA04102000449431E0F3013F858
:10313000012F8A5C1A708342F9D17047BA4E02009F
:10314000F0B5264E07460C460FCE8DB001AD0FC52B
:103150000FCE0FC596E8070085E807003846002F18
:1031600038D0002C38D0381F2146024610344B7816
:103170000D781B0443EA0563CD782B438D78043129
:1031800043EA05238C4242F8043FF0D1144C042159
:103190008A07036916D1C3F30742A55C1A0EA25C25
:1031A00042EA0562C3F30725DBB2655DE35C42EAF0
:1031B000054242EA032221F0030330336B4453F803
:1031C0002C3C534050F8042F013153402C2903610B
:1031D000DED101200DB0F0BD2046FBE7843F0200A8
:1031E000BA4E020037B505460C46C9B18B6800934C
:1031F000D1E900231248452119F074FF6369009357
:10320000D4E903230F48452119F06CFFE2690E4809
:10321000452119F067FFA2690C48452119F062FFAA
:10322000012D06D1EFF305820948103A452119F026
:1032300059FF2146284603B0BDE8304015F036BDA1
:10324000BA4F0200EE4F0200225002003650020038
:103250006950020030BFFFF7FDBF00BF2DE9F0410C
:103260000B4EDFF8308006EB0807CC1B05463246D4
:103270000949204620F051FCA01942460021083C93
:1032800020F059FC6C6707F10800BDE8F08100BF31
:103290000000000008000000683F0200074A936831
:1032A00093F90E10002907DB526993421FBF044AAD
:1032B000536843F080535360704700BFDC2A0020FE
:1032C00000ED00E02DE9F8433D4D804689463D483C
:1032D0004521174619F006FFAB6ADA0626D53A48AB
:1032E000452119F0FFFE1124AB6A1B0704D53748AE
:1032F000452119F0F7FE1224314DAB6A9E0717D510
:103300003348452119F0EEFE6E6BAB6A1C0645D5BD
:1033100030483246452119F0E5FEB9F1000F03D0DF
:10332000AB6A23F08003AB62132403E01024DBE7D5
:103330006FF01506224DAB6AD80704D52648452103
:1033400019F0D0FE1424AB6A990604D52348452110
:1033500019F0C8FE15241A4DAB6ADA0602D4AB6A1E
:103360009B070AD56B68180507D54146304600F023
:1033700083FBB0B180F309880224114B9A6A92064C
:1033800042BF5A6A22F400525A629A6A42F0FF021D
:103390009A6200233B702046BDE8F8836FF0150663
:1033A000C2E7AB6AD906E8D50D490E4840F25D1276
:1033B00019F07AFB0A4840F25D1119F06CFB00BF6E
:1033C00000ED00E0815002009C500200D450020049
:1033D000EC50020009510200245102004851020041
:1033E0007C5102006C4B020010B5204C2048452156
:1033F00019F078FEA36A990136D51E48452119F0C7
:1034000071FE1E20A36ADA0104D51B48452119F07C
:1034100069FE1F20154CA36A1B0304D517484521DC
:1034200019F060FE2120A36A590304D514484521F0
:1034300019F058FE22200D4CA36A9A0304D51148B6
:10344000452119F04FFE2320A36ADB0304D50E4863
:10345000452119F047FE2420044A936A6FEA03438A
:103460006FEA1343936210BD1D20CBE700ED00E02F
:10347000AE510200CB510200E351020002520200A1
:10348000255202004F5202006E52020070B5284CC5
:1034900006460D462748452119F024FEA36AD904A3
:1034A0003BD52548452119F01DFE1720A36A1A05B2
:1034B00004D52248452119F015FE18201C4CA36A9A
:1034C0009B0511D51E48452119F00CFEA26BA36A7D
:1034D000180408D51B48452119F004FE1EB1A36A43
:1034E00023F40043A3621920114CA36A590504D5A3
:1034F0001548452119F0F6FD1A20A36ADA050ED504
:103500001248452119F0EEFD1B20094A936A43F445
:103510007F43936200232B7070BD1620C6E7A36A19
:103520009B04F2D50A48452119F0DCFD1C20ECE78C
:1035300000ED00E09E520200B9520200D450020099
:10354000CF520200ED52020007530200275302003F
:1035500048510200F0B56D4B044658688BB0C0F37B
:103560000803002585F31188BFF36F8F02F07F46B3
:10357000B6F17F4F07D102F00C06082E0ED1644839
:10358000452119F0AFFD634963484FF48B6219F090
:103590008BFA4FF48B615F4819F07DFA16074CBF28
:1035A0000C460125002CEED00026DA1E8DF80760AF
:1035B000092A00F29980DFE802F0058C907797974E
:1035C000979797945548452119F08CFD8DF8076021
:1035D0004E4EF36A9A0705D55148452119F082FDF0
:1035E000002329E0F36A002B02DA4E484521F5E773
:1035F000F36A5B0064D54C48452119F073FD73698B
:10360000A26943F480737361BFF34F8FBFF36F8F71
:10361000736932F8022C23F480737361BFF34F8F08
:10362000BFF36F8F4DF602739A4224D122683F4850
:10363000452119F057FD23689DF80720CAB902AE4D
:1036400004F1200720686168324603C20834BC4296
:103650001646F7D1099A002D52D0C2F3080121B9BC
:103660006FEA52226FEA4222099202A91846FFF736
:10367000B9FD0BB0F0BDB36ADBB23BB10DF107028F
:1036800001212046FFF71EFE0346D5E7B36A13F477
:103690007F4F05D00DF107010120FFF7F7FEF3E79B
:1036A000B36AB3F5803F02D3FFF79EFEECE71949FA
:1036B000194840F22A3219F0F7F940F22A316AE744
:1036C0001449154840F22E3219F0EEF940F22E312D
:1036D00061E70DF107020021D3E70DF1070100209A
:1036E000DBE71348452179E71249134A10F4F87FC4
:1036F00008BF0A461148103B452119F0F3FC6FE75B
:1037000022F4FF7222F00102AEE700BF00ED00E0FC
:10371000725302007C5102006C4B0200A253020063
:10372000BE530200E4530200F75302001B54020090
:103730003C540200445302005953020065540200F5
:10374000024A536943F010035361704700ED00E0F3
:10375000EFF30880EFF3098101B57246FFF7FAFE37
:1037600001BD00BF002080F31488BFF36F8F14F0F9
:10377000C1FA00200D490860BFF34F8F0C4880F359
:10378000088800F03DF8202080F3118809484FF4A4
:103790000461401880F30988EFF314800221084384
:1037A00080F31488BFF36F8F00F02EF994ED00E0E2
:1037B000C055002000480020BFF34F8F0549064B3D
:1037C000CA6802F4E0621343CB60BFF34F8F00BFBF
:1037D000FDE700BF00ED00E00400FA050749D1F85D
:1037E00090200023C2F307221846934200DB704763
:1037F000C1F89830C1F8A0000133F6E700ED00E011
:1038000008B572B6002383F31388FFF7E7FF144B64
:103810004FF0FF32C3F88020C3F88420C3F888201B
:10382000C3F88C20C3F89020C3F89420C3F89820E4
:10383000C3F89C20C3F88021C3F88421C3F88821F1
:10384000C3F88C21C3F89021C3F89421C3F89821C0
:10385000C3F89C2162B6BFF34F8FBFF36F8F08BDD3
:1038600000E100E0084B9B6883420BD1EFF3058336
:1038700043B1064B5A6842F080525A605A6A22F4A9
:1038800000425A6217F02CBDDC2A002000ED00E057
:10389000094A93686FF00A01D967084998674B682D
:1038A00043F080534B60002383F31188BFF36F8F85
:1038B0009368D86F704700BFDC2A002000ED00E05D
:1038C00010B50446EFF31183202383F31288BFF36E
:1038D0006F8F0A4B58699860094B4FF000625A602D
:1038E000084B426F1A600022836F826783F311884E
:1038F000BFF36F8F00F028F9204610BDDC2A0020AE
:1039000000ED00E08C1200200B498A684FF0300077
:103910001044EFF3098C80E8F01F74467046FFF7FF
:10392000CFFFA64604498A6802F1300090E8F01FF4
:103930008CF3098870470000DC2A00201EF0040F79
:103940000CBFEFF30880EFF30980816911F8021CC6
:103950000229FFD001B51AF0F6FD01BD40B20028E2
:1039600007DB044A4109012300F01F00834042F8AD
:103970002130704700E100E040B200280CDB430931
:10398000064900F01F0020330122824041F8232025
:10399000BFF34F8FBFF36F8F704700BF00E100E0B0
:1039A000054B420900F01F0053F82220012303FABF
:1039B00000F01040704700BF00E100E0013107292E
:1039C00008B508D90D490E48582219F06DF80B4872
:1039D000582119F060F840B20028ACBF00F16040F7
:1039E000084B4FEA4111B8BF00F00F00C9B2AABF9F
:1039F00000F56140195480F8001308BD7D540200A1
:103A00006C4B020014ED00E00B4A08B50B4B22F0A2
:103A10007F029A60BFF34F8FBFF36F8FD3F8882078
:103A200022F47002C3F8882015F02AFA17F0F8FD86
:103A300000F060F815F068FA0000000000ED00E00A
:103A400042F8203C009B42F81C3C0A49019B42F88A
:103A5000183C029B42F8143C21F001014FF08073A6
:103A600042F8043C42F8081C0023203A02658367B0
:103A7000704700BF2D1D0000094A0346906870B1D1
:103A800013F1160F406E05D0A0F140029A4205D8FE
:103A9000834203D2814228BF002070470020704734
:103AA000DC2A002008B515460B4A0C4B9060426F8B
:103AB0001A600E4600F048F82C4686F309884FF04D
:103AC0000000074B984720464FF000014FF00002DE
:103AD0004FF00003034C2047DC2A00208C1200200A
:103AE00065E501002D1D0000014B10221A61704791
:103AF00000ED00E0044800232021C2180133272BE9
:103B000082F80013F9D1704700E100E008B5EFF347
:103B10000583064A103B02EBC30152F833004968A3
:103B20008847BDE80840FFF7B9BB00BF6C3C020006
:103B3000024B034A0348012100F084B80000012031
:103B4000000000204C420200426E054B403A1A60D1
:103B5000044A4021C3E901121846012100F08EB841
:103B60009012002000000B1508B5104AD2F89030D2
:103B7000C3F30723013B984207D9024645210C486D
:103B800019F0B0FA6FF0150008BDC2F898000B6884
:103B900023F01F03034343F01003C2F89C308B68EB
:103BA00043F00103C2F8A030EEE700BF00ED00E0F3
:103BB000B8540200F0B50F4685B01C4605460026F5
:103BC000BE420CDA686808B38CB1431E184209D0B3
:103BD00010483246452119F085FA6FF0150210465B
:103BE00005B0F0BD1F28F3D929680B42F0D12B682E
:103BF00001931AF0DAFCAB6801A90343D0B2039336
:103C0000FFF7B2FF10F1160FE7D0421C01360C355A
:103C1000D6E700BFE3540200044B0522C3F894200A
:103C2000BFF34F8FBFF36F8F704700BF00ED00E011
:103C3000BFF35F8F024B0022C3F89420704700BF90
:103C400000ED00E010B50A4C01232278FFF7B2FF27
:103C5000207016300AD10749074840F2671218F061
:103C600023FF044840F2671118F015FF10BD00BF94
:103C70005A2B00200B5502006C4B020008B5114A6C
:103C800000231278FFF796FF10F1160F08D00E4AA6
:103C90000021D2F89030C3F3072398420BDB08BD14
:103CA0000A490B484FF4C37218F0FEFE07484FF460
:103CB000C37118F0F0FEC2F89800C2F8A0100130ED
:103CC000E7E700BF5A2B002000ED00E00B55020093
:103CD0006C4B02002DE9F04F70487149D0F89030DC
:103CE0000D68C3F307239D4285B00AD96D496E481C
:103CF0004FF4CF7218F0D8FE4FF4CF71694818F026
:103D0000CAFEFFF795FF49680022954201F10C01B8
:103D100029D1664C664F25706846FEF711FEDFF824
:103D20009481DFF8949106460025AE422ED1237887
:103D30005A490020D1F89020C2F307229342C0F2E2
:103D4000A380FFF769FFD1F89030C3F30723082B56
:103D500000F0A0805349544840F20E2218F0A4FE0F
:103D600040F20E21CAE7C0F8982051F80C3C23F02D
:103D70001F03134343F01003C0F89C3051F8043C78
:103D800043F00103C0F8A0300132BEE7009A02EB15
:103D900005132901D3F80CA00AEA0700B0F5000FBB
:103DA00058D00AD8B0F5001F34D0B0F5800F46D0F7
:103DB000B0F5801F12D00135B7E7B0F1807F54D045
:103DC000B0F1007FF7D19868D3F804A052581AF0E8
:103DD000ECFBCDE901A240F480200BE09868D3F819
:103DE00004A052581AF0E1FBCDE901A240F088503E
:103DF00040F430200390207801A9FFF7B5FE002899
:103E00003EDA284928484FF4E47218F04DFE4FF48A
:103E1000E47173E79868D3F804B052581AF0C5FB00
:103E20001AF0010F40EA0800CDE901B20390E2D098
:103E30001C491D486C2218F037FE6C215EE798681B
:103E4000D3F804A052581AF0B0FBCDE901A240EA21
:103E50000900CFE79868D3F804A052581AF0A5FBE0
:103E6000CDE901A240F08270C4E79868D3F804A0BD
:103E700052581AF09AFBCDE901A240F08870B9E7D8
:103E800023780133237096E7C1F89830C1F8A00079
:103E900001334FE7002005B0BDE8F08F00ED00E0F2
:103EA000584202000B5502006C4B02005A2B0020B6
:103EB0000000F0FF000008110000020208B5024BEC
:103EC0001B689847002008BD9C120020034B044A41
:103ED0001860937843F00203937070479C1200209F
:103EE000B001002008B50649064821F00701C1F1DC
:103EF000005202F58032FDF783FE002008BD00BFAE
:103F000027680020A0120020024B0122C3F84025A0
:103F10000020704700E0014020B1034B800143F0D6
:103F200001031847704700BF4040020008B504482D
:103F30001FF039FB00280CBF6FF01200002008BDF5
:103F40001C3C02000E4B402970B528BF40210D4C8F
:103F500046181D46B04203F1020304D1002305F8C0
:103F60001130074870BD02781209A25C03F8022CD8
:103F700010F8012B02F00F02A25C03F8012CE9E714
:103F8000792B0020B355020030B503788BB004467E
:103F900007AD032B21D8DFE803F0021A1C1E1249DB
:103FA0002846FCF711FA059563780493A3780393E8
:103FB000E37802932379019363790093A3790B4A01
:103FC0000B481E2118F040F909480BB030BD0949D3
:103FD000E6E70949E4E70949E2E7094A0A212846F0
:103FE00018F032F9DFE700BF675502009055020074
:103FF0005B2B00206E550200755502007F550200B4
:1040000089550200884208B501F120030CD9984275
:104010000FD20C490C4840F2B12218F045FD094876
:1040200040F2B12118F037FDF3D000F120029142A7
:10403000EEE7013813F8012D00F8012F8B42F9D17A
:1040400008BD00BFCB5502006C4B0200F8B5624EB4
:10405000BFF35B8F3468BFF35B8F14F0010454D05F
:104060005E4F5F4C5F4D60483A46214619F07AF941
:10407000C8BB5E48452119F035F81F274FF0FF32C5
:104080004FF0FF33012000F073FB00F10C0502211B
:104090000446284611F066FF3E2303704223437016
:1040A0000121284611F05EFF0823037041212846B4
:1040B00011F058FF054600F8017BEFB140220021C6
:1040C0001FF039FDBFF35B8F56E8003F23F001037B
:1040D00046E80032002AF7D1BFF35B8F2046BDE8E7
:1040E000F84001F07BBC2022294620461FF080FCCE
:1040F0000028B8D00027C1E73B49FFF783FF3C49C0
:1041000005F12100FFF77EFFDCE7BFF35B8F33682B
:10411000BFF35B8F9B0755D53049334819F0DEFF5D
:10412000021E36DA3348452118F0DCFF4FF0FF322B
:104130004FF0FF33012000F01BFB00F10C070221C0
:104140000546384611F00EFF3E23037022234370CC
:104150000121384611F006FF09230370212138465A
:1041600011F000FF0346013034BB1F221A70FF21FB
:1041700020221FF0E0FCBFF35B8F56E8003F23F0E6
:10418000020346E80032002AF7D1BFF35B8F2846CE
:10419000A5E71349BFF35B8F33681248BFF35B8F0A
:1041A00013F0040F01F120020C4B18BF014610461A
:1041B00019F027F90446B9E700220B491A70FFF7F6
:1041C00021FFD8E70C490D48D72218F06DFC0A48AA
:1041D000D72118F060FC00BFAC120020784202002A
:1041E000FA2B0020845602001A2C0020FD550200F4
:1041F0003A2C00202B560200515602006C4B020054
:1042000070B5214CBFF35B8F2368BFF35B8FDA0778
:1042100006460D4601D50C2070BD012931D8BFF3EB
:104220005B8F54E8003F43F0020244E8002100297C
:10423000F7D1BFF35B8F9B07EDD414483146FFF7EE
:10424000E1FE134806F12001FFF7DCFEBFF35B8FB0
:1042500075B154E8003F43F0040344E80032002AFB
:10426000F7D1BFF35B8F0B4800F040FA0020D3E793
:1042700054E8003F23F0040344E80032002AF0D061
:10428000F6E71220C8E700BFAC1200201A2C00206D
:104290003A2C0020C001002070B5067E044676B995
:1042A000C3681D8842F22602954245D00FD842F2DB
:1042B000010295424FD042F225039D4213D02A4B72
:1042C000D3F8683120465B69BDE87040184742F278
:1042D0005E039D42F3D103210C3011F00FFEE06824
:1042E00090F840102EE003210C3011F007FE20461C
:1042F00011F0F8FCBFF35B8F1C4B1A68BFF35B8FA8
:10430000920707D50C26314642F225001AF08BF9A8
:10431000002070BDBFF35B8F53E8002F42F0010116
:1043200043E800100028F7D1BFF35B8FD307E9D42F
:104330000F4800F0DBF9E6E703210C3011F0DEFD59
:10434000E0683146FFF75CFF0646204611F0CAFCE4
:1043500031462846DAE7DA7802F07F02DA701A7915
:1043600022F001021A71AAE700000020AC1200201E
:10437000C00100202DE9F341224DBFF35B8F984629
:104380002B68BFF35B8F1746DA0704461ED530B99A
:104390001D48452118F0A6FE6FF0010017E001A9A5
:1043A00018F0FBFE1949024620461FF031FB002899
:1043B000F2D1BFF35B8F2B68BFF35B8FC3F3C006F3
:1043C0001B0707D51248572118F08CFE002002B0B9
:1043D000BDE8F081A5F1D404072221464046B84744
:1043E000062809D80B48452118F07CFE45F8D46C06
:1043F000E671C4F80360E9E70723B0FBF3F0E0716E
:10440000E4E700BFD4000020AF5602007C55020054
:10441000D5560200FE5602002DE9F04188B09C7985
:10442000DDF838805D791E79DF7893F802C093F863
:1044300001E01B78B8F1000F0ED0CDE90638CDE9C8
:1044400004CE1346CDE90267CDE90045084A17F0CE
:10445000FBFE08B0BDE8F081CDE905E3CDE9037CC2
:104460001346CDE90156034A009417F0EDFEF0E73C
:10447000285702004C57020010B5FEF72FFC0446E7
:1044800020B102464521024818F02CFE204610BDFE
:104490006D57020070B504468CB01E461546A2B199
:1044A00029B10A4602A8042118F00BFB02A90091C9
:1044B0002B462246242103A8FFF7AEFF109A31466F
:1044C00003A8FEF79BFA0CB070BD0346044A2421F2
:1044D00003A817F0B9FE0028F0DA6FF01500F2E734
:1044E0009757020007B50B4B0B48DA79C2EBC202B3
:1044F000009200221146FFF7CDFF024630B1074877
:10450000452103B05DF804EB18F0ECBD03B05DF895
:1045100004FB00BF000000207C5502009D570200F4
:1045200030B504468DB0154692B129B10A4602A8AD
:10453000042118F0C6FA02A900912B462246242134
:1045400003A8FFF769FF03A818F0FFFD0DB030BD09
:104550000346054A242103A817F076FE0028F2DA64
:104560006FF01500F2E700BF9757020007B5009300
:1045700013460A4601460348FFF78CFF03B05DF877
:1045800004FB00BFC37102000A4601460148FFF761
:10459000C7BF00BFC371020007B5009313460A46A8
:1045A00001460348FFF776FF03B05DF804FB00BF48
:1045B000BD71020007B5009313460A460146034841
:1045C000FFF768FF03B05DF804FB00BF69700200ED
:1045D00007B500220346009103481146FFF75AFF32
:1045E00003B05DF804FB00BFB571020008B50248D6
:1045F00015F0ACFC002008BDD0010020F8B51D4D21
:10460000BFF35B8F2B68BFF35B8F13F0010F2E4658
:104610002ED015F8CD3CA5F1D40783B901F002FEE8
:10462000044628B11448452118F05CFD2046F8BD29
:10463000FB7923B901F006FE04460028F2D1BFF34E
:104640005B8F2B68BFF35B8F5A0701D401F004FA2C
:10465000BFF35B8F56E8003F23F4803246E8002129
:104660000029F7D1BFF35B8FDB0301D5FFF7BEFF56
:104670000024DBE7D4000020BD57020007B50093FB
:1046800013460A4601460348FFF704FF03B05DF8EE
:1046900004FB00BF987702000A4601460148FFF775
:1046A0003FBF00BF9877020030B50A4D0A4B85B076
:1046B000002428460293039415F0BEFC02AB00933D
:1046C000284606490A234FF4A86215F0CBFC204681
:1046D00005B030BDD8070020F5570200003100209A
:1046E0000146014815F04ABDD8070020014601489F
:1046F0001FF044B8D80700200378012B30B513D041
:10470000022B27D07BB9194B0A4603F1100453F84A
:10471000045B42F8045BA342F9D11B781370438811
:104720004B731B0A8B7330BD104B0A4603F1100408
:1047300053F8045B42F8045BA342F9D11B78137071
:1047400043684B73C3F307221B0CCB731B0A8A739A
:104750000B74E8E700F1100350F8042B41F8042B28
:104760009842F9D103780B70DDE700BFFE570200D5
:10477000052838B5054603D82A21C140C90708D401
:104780000A490B48422218F08FF90848422118F0D4
:1047900082F908481EF084FC044620B101210C3047
:1047A00011F074FB2576204638BD00BF0F5802007B
:1047B0006C4B02006C070020132810B50CD10A487E
:1047C0001EF06EFC044628B101210C3011F05EFB96
:1047D00001232376204610BD09B10448F0E7BDE867
:1047E00010400120FFF7C4BFA0070020D006002022
:1047F000C36802481A78572118F074BC4658020062
:1048000038B505461446084602EBC3039C4202D164
:104810006FF05E000FE0224612F8081BA9420FD18C
:10482000028A6378934207D906482B46452118F03F
:1048300059FC6FF0150038BD636898470020FAE70F
:104840001446E3E77358020070B5C6683378B6F8CB
:10485000014083B90F21204602F0BEFEF3780546E1
:1048600050B90A4A118831B96FEA04506FEA105002
:104870001080074A137070BD0373012102F0BCFD64
:104880002846BDE8704002F05BBD00BF302B002021
:104890005A2C002070B5C3681D78B5B9B3F8016013
:1048A0000F21304602F098FE044630B932460748E0
:1048B000BDE87040452118F015BC294602F09CFD6A
:1048C0002046BDE8704002F03BBD70BD9A58020022
:1048D00010B5C368B3F801400121204602F07CFE08
:1048E00030B922460448BDE81040452118F0FABB13
:1048F000BDE8104002F024BDC558020010B5C368E1
:104900001C880121204602F067FE30B92246054886
:10491000BDE81040452118F0E5BBBDE8104002F0AD
:104920000FBD00BFC558020008B501210C3011F0C1
:10493000FFFABDE8084002780148452118F0D2BBD3
:10494000EE580200014608B5074811F011F9074971
:1049500007481EF013FF021E05DABDE808400548AF
:10496000452118F0BFBB08BD440100201C020020F7
:10497000F80800201559020010B5084C014606221F
:1049800094F86F0003F06CF838B994F86F0004499C
:10499000BDE81040052203F063B810BD0000002000
:1049A0004D55020073B505460C46FFF729FF5F30F1
:1049B0000BD1268AE0683146FFF7C4FA33460090EF
:1049C0002A460348572118F08DFB02B070BD00BF86
:1049D0003759020070B53B4811F01CF90446002815
:1049E0006FD0027E012A44D0032A67D1028A032AAB
:1049F00004D83548452118F075FB11E004210C302E
:104A000011F096FAFF22438806886276228AC6F35E
:104A10000B009342608307D02C48452118F062FBBD
:104A2000204611F05FF913E00F2102F0D5FD054695
:104A300018B9628B26484521DDE702F003FE320BF0
:104A400060762146284602F027FB284602F078FCD3
:104A5000204BD3F84431002B33D01F491F481EF0A0
:104A60008DFE021E2DDABDE870401D48452118F06C
:104A700039BB028A012A02D81A484521BBE7022124
:104A80000C3011F055FA0546007819F0ADFE10F023
:104A900002060CD11449154840F6A42218F004F877
:104AA00086F31188BFF36F8F0323184602DF104A85
:104AB000287806232146FFF775FFB1E70D48452109
:104AC00099E770BD440100205E590200845902003C
:104AD000AD590200000000201C020020F808002050
:104AE00015590200D4590200F55902006C4B02001E
:104AF000B8430200295A020010B5012104460C30C7
:104B000011F016FA2146034A0078BDE810400A2346
:104B1000FFF748BFE843020010B5012104460C30FE
:104B200011F006FA094A007800232146FFF768FED3
:104B30005F300AD1218AE068FFF704FABDE810402F
:104B400002465721024818F0CDBA10BD3844020081
:104B5000425A020070B5C568B5F8016001213046BF
:104B600002F03AFD044630B932460D48BDE87040C7
:104B7000452118F0B7BA2B783BB9D5F80330C0F807
:104B8000B530D5F80730C0F8B930201D4FF480514A
:104B900019F03CFE2046BDE8704002F0D1BB00BFDA
:104BA000C55802002DE9F0478846174606460028FA
:104BB00000F09280BFF35B8FDFF82091002359E86B
:104BC000004F49E80032002AF9D1BFF35B8F34B9B6
:104BD00032464348BDE8F047452118F083BA2046E5
:104BE00010F0B2FE3F4D4FF00C0A0AFB0050438814
:104BF000B34221D0204610F0A7FE0AFB00503246F7
:104C000043883948452118F06DFABFF35B8F59E8A6
:104C1000003F49E80042002AF9D1BFF35B8F002B27
:104C20005AD03249324840F6FD0217F03DFF2F4876
:104C300040F6FD0117F02FFFA7420ED0204610F0DE
:104C4000A7FE04F10C0601212176304611F01EF971
:104C50003A8AF96830461EF03DFA204610F074FE9C
:104C60000C2606FB00504368ABB1B8F1000F12D11F
:104C7000204610F069FE06FB005001214268D2E98F
:104C80000003127A03F01F06B1405B09F2B100EB9A
:104C9000830019F0BBFD204610F056FE0C2606FBE3
:104CA000005083686BB1204610F04EFE704305F84B
:104CB0000080204610F048FE06FB0055A86814F05E
:104CC000B7FD2046BDE8F04711F00CB8C94300EB32
:104CD000830019F0AAFDDEE7BDE8F087400100205F
:104CE0006B5A0200B0120020985A0200F5590200D7
:104CF0006C4B020038B5042104460C3011F018F951
:104D00004578017840882246FFF74CFF25B10348DB
:104D1000BDE8384014F08CBD38BD00BF280100202C
:104D200038B5032104460C3011F002F9E368057828
:104D3000B0F80100197840F63543984206D10A468A
:104D4000BDE838400648572118F0CCB92246FFF795
:104D500029FF25B10348BDE8384014F069BD38BDCE
:104D6000D05A0200280100202DE9F84F474FDFF804
:104D7000208107F11409FB6848466FF39433FB6008
:104D800002F068FA451C41484FF0FF324FF0FF3304
:104D9000294617F0E9F868B13E4840F61D32414611
:104DA00017F082FE002383F31188BFF36F8F032374
:104DB000184602DF354EDFF8E0A015B916F056F9B7
:104DC000D9E7F268C2F38632022A4FD9042A57D1B2
:104DD000337B002B4DD13148002200231EF064F9B3
:104DE000044660B92B4840F6B322414617F05CFEFA
:104DF00084F31188BFF36F8F0323184602DFDFF8B7
:104E0000A0B028484FF0FF334FF0FF3214F04AFDB6
:104E1000DBF8403153B12448452118F063F9DBF841
:104E2000400110F05FFF0023CBF84031204610F026
:104E300085FFCBF840012046FFF72EFA0246A8B1C5
:104E40001A48452118F04EF9164814F0F1FC204696
:104E500010F07AFD164B0C2202FB00301F21408817
:104E60002246FFF79FFE204610F03CFF1436013D1E
:104E7000A3E7012BFAD13069383802F0DDFEF5E7FF
:104E80005721504618F02EF9F0E700BFE00100204E
:104E9000F55902006C4B0200525B02004C010020ED
:104EA00000000020280100200B5B02002B5B0200A9
:104EB000B01200202DE9F74FC768018A3A78012324
:104EC00003EB82038B426BD900913848452118F0DF
:104ED00009F903B0BDE8F08F35484A46452118F07E
:104EE00001F901363B789E42F3DA07EB86030F2186
:104EF000B3F80190B3F80350484602F06DFB044646
:104F00000028E9D04FF0000900F1280BFDB1EFF3C4
:104F1000118288F31288BFF36F8FE3696BB1013B95
:104F2000E36182F31188BFF36F8F204602F036F8F9
:104F3000013D14F07DFCADB2E8E763695BB982F333
:104F40001188BFF36F8F4521504618F0CBF82046EB
:104F500002F0F6F9C5E7A169186860618B4208BFE5
:104F6000A06182F31188BFF36F8FEFF3118188F393
:104F70001288BFF36F8FDA68E261C3F80C90C3F850
:104F80000090626A4AB9C4E9083381F31188BFF31B
:104F90006F8F584614F0DAFFC7E713606362F4E7D7
:104FA000DFF810A000264FF020089BE7785B020096
:104FB000A75B0200C85B020073B5C568B5F8016065
:104FC0000121304602F008FB044638B92B4832462E
:104FD000452102B0BDE8704018F084B82B781A2B38
:104FE00000F1040619D1C378012B2AD14FF4806156
:104FF000304619F00BFC42050FD4D4F8A8300093CA
:105000006946D4F8B0300193204602F0DDFF204617
:1050100002B0BDE8704002F093B92B788BB9B5F8B7
:105020000330A4F8A630B5F80530A4F8AC30B5F8D4
:105030000730A4F8AE306FF48071304619F0F5FBFC
:1050400017E0BFF35B8F6368BFF35B8FDB05F2D5BF
:105050002B78202BEFD194F8B430002BEBD0013B10
:1050600084F8B4304FF42032002304F1600015F0CE
:10507000E7F8204602F07EFBC9E700BFC5580200F2
:1050800010B5C1E900239DF808300B720C4610F0F2
:105090005BFC034B0C2202FB00335C6010BD00BFC5
:1050A000B01200202DE9F0474FF0FF3206464FF0D6
:1050B000FF33184888461DF0F3FF044638B300F16B
:1050C0000C0701214FF00009384610F0DFFE84F88C
:1050D0001890204610F038FC0F4D4FF00C0A0AFBD8
:1050E00000504680204610F02FFC0AFB0050C0F80C
:1050F0000890204610F028FC0AFB00550321384692
:10510000C5F8049010F02EFF068080F8028020463B
:10511000BDE8F08738070020B012002038B50546FA
:105120000C4619B9FFF7BEFF0446C0B140F635433F
:105130009D420ED12046FFF7AFF8054668B1024602
:105140004521084817F0CEFF204610F0CBFD284639
:1051500038BD0548214610F0A5FD0025F7E76FF0A2
:105160006805F4E72B5B02004C010020F0B5C56830
:105170002F88BCB287B00121204602F02DFA0646E6
:1051800038B926482246452107B0BDE8F04017F05F
:10519000A9BF02ACD5F80220D5F806300194698980
:1051A00000911BF047F838B3122142F21A00FFF7C2
:1051B00079FF054640B91A48452117F093FF30465C
:1051C00002F0BEF807B0F0BD12210C3010F0CAFE9C
:1051D0000346224623F8027B06AF144603CCBC42AA
:1051E00018605960224603F10803F6D1294642F2BD
:1051F0001A00FFF793FFE2E7022142F21B00FFF7DC
:1052000051FF04460028D6D002210C3010F0AAFE2F
:105210002146078042F21B00EBE700BFC5580200A1
:10522000E45B020070B506460D4642F22100032100
:10523000FFF738FF044628B9BDE87040084845210B
:1052400017F050BF03210C3010F08CFE06808570E3
:10525000214642F22100BDE87040FFF75FBF00BF6A
:10526000005C020073B5C368D9789A781E8842EA58
:105270000122ADF8002059791A7942EA0122ADF8ED
:105280000220D9799A7942EA0122ADF804201A7AEB
:105290005B7AB4B242EA032301212046ADF806301E
:1052A00002F09AF9054650B91C484521224617F0EC
:1052B00019FF02212046FFF7B5FF02B070BD694615
:1052C00002F0ACFA38B91E212046FFF7ABFF2846A2
:1052D00002F036F8F1E70E2142F22000FFF7E2FE7D
:1052E00004460028F3D00E210C3010F03BFE0023C2
:1052F0000680C0F80A30BDF800304380BDF80230A7
:105300008380BDF80430C380BDF806300381214698
:1053100042F22000FFF702FFD9E700BFC5580200A4
:10532000F0B5074687B016460C4621B9FFF7BAFE1E
:105330000446002849D00122002168461EF0B9F930
:10534000204610F001FB244D0C2303FB0050C0F855
:1053500008D0204610F0F2FC0146204810F0A2FCD4
:105360004FF4A0220023684614F09CFA68B11C494F
:105370001C4840F2491217F097FB002383F3118871
:10538000BFF36F8F0323184602DF204610F0DCFACC
:105390000C2358432D5C85B12B4613483A465721C0
:1053A000093D17F09FFEEDB2204610F09BFC092D41
:1053B0000ED80E4B585707B0F0BD16B13460002020
:1053C000F9E7204610F08EFCF9E76FF06800F2E78D
:1053D0006FF00400EFE700BFB01200204C01002086
:1053E000F55902006C4B02001F5C0200976002003E
:1053F00073B506460D4601AA002142F22F00FFF7C1
:105400008FFF044630B11348452117F06BFE20464C
:1054100002B070BD0198C368B3F801203280B3F8C0
:1054200003302B8010F05EFC3288A2F11B03E02BCE
:1054300003D90948572117F055FE2A88A2F5A4730D
:105440009BB244F248118B42E1D90448572117F02E
:1054500049FEDCE7405C0200655C02008F5C0200F4
:10546000F7B5144B93F99B30002B05460C461DDA1B
:1054700014B9204603B0F0BD082C01AA4FF000017A
:1054800042F21800264628BF0826FFF749FF0028E9
:10549000F0D1019FF9683246013128461EF03DFBEC
:1054A000384610F01FFC3544A41BE1E76FF085007F
:1054B000E0E700BF000000202DE9F047A14BB0F865
:1054C0000180198848F4704291424FF0000608BFED
:1054D0001E80054608BF9C4B88B008BF1E7800F0B0
:1054E00097FC2C7834B33C2C1CD101F065F86FF09C
:1054F0008001103019F099F90020FFF73DFA0546B8
:1055000030B99248452108B0BDE8F04717F0EABD30
:105510000473002101F070FF284608B0BDE8F04791
:1055200001F00EBF8A482246572108B0BDE8F04777
:1055300017F0D8BDEB78012B08BF864B05F10407A7
:10554000384608BF93F86F4019F032F93946F0B188
:1055500006A819F022F9D5F81130CDF81130B5F8B8
:105560001530ADF815304FF0010AEB78012B25D03E
:105570003846FEF709FD45210246774817F0B2FD8F
:105580001321404619F06DF908B0BDE8F0872046B8
:1055900019F0CCFA0346006806909A889B796868EF
:1055A000ADF81C208DF81E30BA88BB7995F804A0A0
:1055B0000490ADF814208DF81630D6E706A8FFF752
:1055C000DBF9EB78012B04460AD100F0F5FF6FF010
:1055D00080018146103019F028F9484619F0D0FBB7
:1055E000002CC5D02346B5F8012023F8902B06984F
:1055F0009DF81E20BDF81C10C4F890009A71998087
:10560000B5F81730A4F8A630B5F81930A4F8AC30C6
:10561000B5F81B30A4F8AE30EB78E3700022012B14
:10562000227322D18DF810A0BDF814209DF81630F9
:105630000498A4F89B2084F89D30C4F8970000F0EB
:10564000BBFF237A434AC3EBC3039918D358C4F86A
:105650009E308B88A4F8A2308B7984F8A430D2F8DD
:10566000E4305D0601D501F061F90721204601F023
:10567000C3FE26B126730121204601F0BDFE20465F
:1056800019F0D9FB637B072B55D1BFF35B8F6368A0
:10569000304EBFF35B8F13F4805F1FD1E3781BB1F3
:1056A00096F8D830180719D5022142F21600FFF7F4
:1056B000F9FC0546002842D002210C3010F052FCC3
:1056C000238803800022294642F21600FFF728FEB5
:1056D000024618B12148452117F004FD96F8D9304B
:1056E000D9070CD5002102231A460091204619F053
:1056F000F1F8024618B11A48452117F0F3FC96F864
:10570000D8309A0617D5D6F868319B689B0712D512
:105710000DF10E0103A8FFF76BFE60B9BDF80E2076
:10572000BDF80C10204619F0B7F8024618B10D4824
:10573000452117F0D7FC204601F002FE24E76FF068
:105740006802C7E7302B00205A2C0020B75C02000B
:10575000DD5C020000000020FB5C02001C5D02001A
:10576000425D02005E5D020000B5C36889B01A7830
:105770008DF80020B3F80120ADF80120DA788DF81B
:105780000320B3F80B20ADF81720B3F80D20ADF8C7
:105790001920B3F80F20ADF81B205A7C8DF81D207E
:1057A000586801901A899B7A8DF80A30094BADF838
:1057B000082068461A689B88CDF80B20ADF80F309A
:1057C000CDF81120ADF81530FFF776FE09B05DF881
:1057D00004FB00BF6155020029289ABF014B185CE9
:1057E000092070476D60020070B5C368B3F80160AE
:1057F0001D780F21304601F0EFFE044630B93246E5
:105800001748BDE87040452117F06CBC65B12846CB
:10581000FFF7E2FF29460246204602F087F82046BD
:10582000BDE8704001F08CBD8378012BEFD106F00C
:105830007DFC204618F0C0FF0028E8D10520FFF7C6
:10584000CBFF05210246204602F070F805484521AD
:1058500017F048FC0521204601F058FFDFE700BFA4
:105860009A5802007F5D0200F8B5C668B6F801706C
:1058700035780F21384601F0AFFE044630B93A467C
:105880001F48BDE8F840452117F02CBC45B128461B
:10589000FFF7A2FF29460246204602F047F807E03C
:1058A000F378C27A9A4208D11648572117F01AFCA9
:1058B0002046BDE8F84001F043BD8278C372012A5A
:1058C00005D00020FFF788FF00210246E4E70BB176
:1058D00006F02CFC204618F06FFF0028F1D10520BF
:1058E000FFF77AFF05210246204602F01FF806481E
:1058F000452117F0F7FB0521204601F007FFD7E708
:105900009A580200AA5D02007F5D020070B50C4D3E
:1059100006460FCD8EB06C460FC40FCD0FC40FCD11
:105920000FC495E803000D2E84E803009BBF0EAB67
:1059300003EB8606034856F8380C0EB070BD00BF66
:10594000B03F0200DE5D02002DE9F843044600F19D
:105950000C0630461DF0B2FBB4F81080B8F1010F10
:10596000054609D819484246452117F0BBFB204699
:10597000BDE8F84310F0B6B93046022110F0D8FA6D
:105980000746007818F030FF10F0010906460CD1E8
:105990000F49104840F6D36217F086F889F3118852
:1059A000BFF36F8F0323184602DF05230A4A3878B6
:1059B0002146FEF7F7FFB307D9D56369A4F8108035
:1059C00013FA85F5E560BDE8F88300BFD4590200FD
:1059D000F55902006C4B02009043020038B50446B2
:1059E00015F092FA227E012A05D0032A14D120460E
:1059F000FEF7A8FF0BE0E368187818F0F5FEC20781
:105A0000054602D52046FFF79FFFAB07EFD40024E1
:105A100015F0C8FA204638BD0448452117F062FB4E
:105A2000204610F05FF96FF01504F1E7E65D020023
:105A3000084A0346D2F8680130B9D96839B15969C2
:105A400029B1C2F8683170476FF0770070476FF086
:105A50001500704700000020F7B5244C2448254D60
:105A6000254F042118F0D2FEE279244B2046012A6A
:105A700088BF1D46FEF788FA2A460346492120487A
:105A800017F030FB26460125E3799D4206F1070613
:105A900020DB94F870502846FFF738FFB4F87630D2
:105AA0000193B4F87230009302462B464921154801
:105AB00017F018FB94F871502846FFF727FFB4F849
:105AC0007430009302462B460F48492117F00AFB19
:105AD00003B0F0BD3046FEF757FA2A460346492187
