:10000000004C002009240000C9830100F5230000F2
:10001000F5230000F5230000F52300000000000098
:10002000000000000000000000000000E1250000CA
:10003000F523000000000000AD250000F5230000BE
:10004000B1270000FBBC0100B1270000B127000070
:10005000B1270000B1270000B1270000B127000040
:10006000B1270000B1270000B1270000B127000030
:10007000B1270000B1270000B1270000B127000020
:10008000B1270000B1270000B1270000B127000010
:10009000B1270000B1270000B1270000B127000000
:1000A000B1270000B1270000B1270000B1270000F0
:1000B000B1270000B1270000B1270000B1270000E0
:1000C000B1270000B1270000B1270000B1270000D0
:0C00D000B1270000B1270000B12700009C
:0400DC00FFFFFFFF24
:1000E00053B94AB9002908BF00281CBF4FF0FF319F
:1000F0004FF0FF3000F00CB8ADF1080C6DE904CE04
:1001000000F008F8DDF804E0DDE9022304B07047F0
:10011000704700BF2DE9F04786468C460846089E8A
:10012000154674461946002B40F0C2808542B2FA4B
:1001300082F245D94AB1C2F1200300FA02FC2EFA3C
:1001400003F3954043EA0C0C94404FEA154EA8B2D5
:10015000BCFBFEF8230C0EFB18CC08FB00F943EAAD
:100160000C43994528D9EB1808F1FF3704D299457B
:1001700002D9A8F102072B44A3EB0903A4B2B3FBF5
:10018000FEFC0EFB1C330CFB00F044EA0344A042CF
:1001900014D92C190CF1FF3304D2A04202D9ACF1CE
:1001A00002032C44241A43EA07401EB1D440002322
:1001B00034607360BDE8F0874746DDE76346F1E7EA
:1001C00092BB431B01214FEA154EAFB2B3FBFEFCBD
:1001D000200C0EFB1C330CFB07F840EA0343984548
:1001E00062D9EB180CF1FF3004D2984502D9ACF17A
:1001F00002002B44A3EB0803A4B2B3FBFEFC0EFBEE
:100200001C330CFB07F744EA0344A7424ED92C19D0
:100210000CF1FF3304D2A74202D9ACF102032C4403
:10022000E41B43EA0040C0E7C2F1200320FA03F1D7
:10023000954090402EFA03F303434FEA154EAFB2B8
:10024000B1FBFEFC0EFB1C10190C0CFB07F841EA7D
:100250000041884504FA02F422D969180CF1FF30F4
:1002600004D2884502D9ACF102002944A1EB08016F
:100270009BB2B1FBFEFC0EFB1C110CFB07F743EA23
:1002800001439F420ED9EB180CF1FF3104D29F427B
:1002900002D9ACF102012B44DB1B41EA004192E799
:1002A0006046E3E76146F7E76046A3E76346B7E7E2
:1002B000834206D916B9002108467BE7C6E900E06B
:1002C000F9E7B3FA83F78FB9834201D3724508D8AF
:1002D000BEEB020460EB030301209C461EB9002123
:1002E00068E73846FAE7C6E9004CF8E7C7F1200CA2
:1002F000BB4022FA0CF41C432EFA0CF120FA0CF34A
:10030000B84001434FEA14490EFA07F5B3FBF9F878
:100310001FFA84FE09FB18300B0C08FB0EFA43EAA7
:1003200000439A4502FA07F240D9E31808F1FF307A
:1003300004D29A4502D9A8F102002344A3EB0A0390
:1003400089B2B3FBF9F809FB183308FB0EFE41EA4A
:1003500003418E452CD9611808F1FF3304D28E4534
:1003600002D9A8F10203214443EA0040A0FB02980D
:10037000A1EB0E014145CE46434602D306D14D4581
:1003800004D2B9EB020E68EB04030138002EA6D0AC
:10039000B5EB0E0261EB030101FA0CFC22FA07F344
:1003A0004CEA0303F940C6E9003198E74046C5E747
:1003B0004346D9E7034611F8012B03F8012B002A25
:1003C000F9D17047034613F8012B002AFBD1181A04
:1003D00001387047000000002DE9F0470F46D0E9D2
:1003E00006A1D0F82090DFF8688001EB09043034D2
:1003F000A245164614A3D3E9002314D8A1FB080193
:10040000FFF76EFE10A3D3E90023A4EB0A0420F04B
:100410007F45A4FB0801FFF763FE20F07F403D60AD
:100420003060BDE8F087AAFB0801FFF759FE20F015
:100430007F4509F1300004A3D3E90023A0FB0801A4
:10044000E9E700BFAFF300808D49FD1A0700000007
:1004500000CA9A3B000000002DE9F04F8DB020B992
:100460000DB0BDE8F04F0BF027B9BB4D95F86A30E1
:10047000D90700F1408195F8293005EB8303DF6A45
:1004800095F8353005EB8303D3F838A097B13C4697
:1004900014F8020BC0F3801008F09EFD0368C7F843
:1004A00002308388A3803B785A060ED4AA4851466E
:1004B00019F07DFE3B7813F00E0F40F0A0802B6A00
:1004C0005BB10C200DB0BDE8F08F0621204619F07D
:1004D000DBF90028EAD11220F4E708F047FE804655
:1004E00030B108F0B5FE814620B9404608F044FE20
:1004F0000720E7E70BF06CFB044618B9484608F004
:10050000ADFEF2E74FF6FF730385D0F8883000F1B7
:100510001C0B1BB900F18003C0F8883004F17C0289
:1005200004F17801D4F8880019F0B9F994F88E3004
:1005300023F0070384F88E30B4F8763023F4EF63A9
:1005400023F0070343F48C7343F00103A4F87630DF
:1005500094F8393003F03F0363F07F0384F83930B7
:1005600094F83C3023F00703002684F83C304FF425
:10057000C023C4F888312046C4E91266C4F88860F4
:10058000A4F88C60E685266384F83B602665A4F8B1
:100590008E61A4F884611AF0F6FB84F85061C4F807
:1005A00054810BF05DFC94F8943160F3020384F8FD
:1005B00094310BF05BFC94F8943160F3C50384F83C
:1005C000943194F8803166F3410384F8803101213D
:1005D00020460BF03FFE04F1D4001AF0B3FAC5E94F
:1005E0001889C5F820B0C4E905662670E4610EF0EC
:1005F00095FF20B158480AF0E1FD032062E795F825
:1006000024300121C3F342030DF12B008DF82B3070
:1006100019F071F90246002800F091809AF8011053
:10062000384619F07EFD002431234C492C70C5E971
:1006300002344B4B6C60A0FB0101C01841F1070173
:1006400043A3D3E90023C5E90544FFF749FDB5F805
:100650006860286119F05AFC00F109082EB93C784D
:1006600004F00F04631E5C425C4195F824702B6912
:100670003C4ADFF8F4A03D4964F3000785F8247094
:100680004FF0020917F001070BACCDF82C9034D0D5
:1006900000201060CDE90431CDE90842CDE9000326
:1006A0000321CDE9065ACDE9020043464A4619F036
:1006B000F3FB214608F0C4FF002840D12C4A0695E0
:1006C0004AF2D833CDE904020093CDE907A4CDE97D
:1006D00002000190434601220321CDF82C9019F02D
:1006E000E2FB214608F0ACFF48BB95F86A3043F0C6
:1006F000010385F86A300020E4E603F24710106039
:100700001C48CDE904314FF0910CA6FB00014FF6D7
:10071000FF73CDE90842CDE902730CFB06110CA36F
:10072000D3E90023CDE9065AFFF7DAFC4346CDE9C9
:1007300000704A460321384619F0AEFBD1E72B6A18
:10074000002B3FF4BEAE04480AF038FDB9E600BF06
:100750008D49FD1A07000000281B002000CA9A3BA3
:100760008C49FD1A1C1B002061910000A5B30000FC
:10077000C9B00000002AE78470B590F824308AB030
:10078000C3F342030D46044601210DF12300164632
:100790008DF8233019F0AFF871780246284619F029
:1007A000C0FC1D49A0FB01311C48181841F107018C
:1007B00017A3D3E90023FFF793FC216905468D4277
:1007C00020D2481B0021164A02230993A21A6C2347
:1007D000B2FBF3F2134B059309AE00230232CDE9CD
:1007E0000110CDE90333032106960093D2B21846D7
:1007F00019F074FB314608F023FF38B92561002059
:100800000AB070BDFBD9691A0020DCE70C20F7E7BD
:100810008D49FD1A0700000000CA9A3B8C49FD1A59
:10082000281B0020619100002DE9F04F06468BB097
:100830008A46012002219946154610F069FB0022E4
:1008400002218046012007F00FFD30460BF0CCF965
:10085000C71CFFB2364B00963A460121002008F033
:1008600023FB10F0FD0F0DD03249334840F6320221
:1008700017F0F8FA002383F31188BFF36F8F032377
:10088000184602DF2D4CA5FB044527A3D3E900231E
:1008900020462946FFF724FC294B0896CDE906633C
:1008A000284B0593336904934FF6FE730393264B4D
:1008B00020F07F46A6FB03310722E01A02FB061157
:1008C00065EB01014FF47A720023FFF709FC4FF04A
:1008D000000BCDE90160CDF800A04B463A4601215E
:1008E000584619F0E0FA10F0FD0F0CD011491248EB
:1008F00040F6470217F0B6FA8BF31188BFF36F8FFB
:100900000323184602DFB8F1000F07D001220221AD
:1009100010460BB0BDE8F04F07F0A6BC0BB0BDE829
:10092000F08F00BFAFF300808D49FD1A0700000073
:100930007DBB0000A0F8010046D8010000CA9A3B28
:1009400029BB0000D5E900008D49FD1A0000000018
:100950002DE9F0438468228D4FF6FF739A428DB0E3
:10096000804600F0A78020461AF094FB98F81430D7
:10097000012B2ED0022B32D00BBB94F88E3003F01B
:100980001803182B1BD1A18DB4F886218B1D9A4218
:10099000C4BF931F5B1AB4F88211CCBF9BB213463D
:1009A000994208D0A4F88231B4F88231A4F8843195
:1009B000A4F8882103E0B4F88831002BF4D094F82F
:1009C000507187B1394620460DB0BDE8F0430BF0B9
:1009D000DBBA0023A4F88831A4F88431EFE73D2383
:1009E00084F85031EBE7E58D268E5DB33544002366
:1009F000CDE90A33B8F81030ADB2DBB194F9393033
:100A0000002B14DA40460AAA0BA904F1D409FFF717
:100A1000E3FC48461AF0D1F810B9FF200BF082FA37
:100A200048461AF0CAF8024670B100232386002314
:100A3000A4F88A3198F81230D90711D50023A4F808
:100A40008E3115E0751CD2E7D4E91E0118F03CFF89
:100A50000028EAD194F83C305807E8D5A38DE5E7A3
:100A6000B4F88A314BB3AB4220D95B1BA4F88A316E
:100A7000B4F88E317BB1AB423ED95B1B9BB20022F6
:100A8000062BA4F88E31228604D994F9393093428A
:100A900001DA26B301270DF12702294620460CF082
:100AA000E1F974302AD19DF8271000E03E2120465C
:100AB0000BF06AFA0DB0BDE8F083B4F88E31002B6C
:100AC000D6D1628D40F2E2435A43B4F88C3142F2FF
:100AD000107101FB0323013BB3FBF2F3AFE7D4F842
:100AE00078215308D20702D4C4F87831D3E743F011
:100AF0000043C4F87831CDE70821D8E7B4F888314D
:100B0000A3B1AB4203D95B1BA4F888310EE008F017
:100B100059FD014600284FD00023A4F88831238DC9
:100B2000C3801B230371006819F032FAB4F88431D2
:100B300023B1AB4242D95B1BA4F88431238E0FB999
:100B40009E4242D05E1CB6B294F8D13013F001013F
:100B50003DD1DDE90A23002B7CD10AB9002E76D0E5
:100B600000210D460B46228D3D48D4F81C80019192
:100B700003320A990091CDE90470CDE90256CDF80F
:100B80001880D2B20121002019F0A8F910F0FD0F51
:100B900090D008F07DFD80458CD0324932484FF42A
:100BA000A36217F05FF9002383F31188BFF36F8FFF
:100BB0000323184602DF7DE70123A5E70023A4F8FD
:100BC000843120461AF045F9B8E73E46BCE76FF39A
:100BD000000384F8D13094F93930002B2EDA94F8E0
:100BE0007700012100F007001BF0CFF8B4F86E2069
:100BF000B4F86C30DFF874C01D4D134403F2D51304
:100C000018440721E0FB0C5113A3D3E90023284625
:100C1000FFF766FA2569DDE90A2320F07F40854267
:100C200035BF411B2D1A002500212061002B9AD1D0
:100C30000A4398D1002D91D0194694E794F8760094
:100C4000C0F3C00100F007001BF09DF8CEE7002FB5
:100C500086D12FE70D4686E78D49FD1A0700000073
:100C6000EDBA0000A0F8010046D8010000CA9A3B86
:100C70008C49FD1A000000002DE9F04F85B00446B4
:100C8000BDF844900393CDE90112BDF838A019F0E6
:100C90007FFCA368D4F80C61A0EB0905002B834608
:100CA000ADB209DAE168626823F0004391422CBFDB
:100CB0007618B618A360F61A638D634F13FB05F31D
:100CC0009BB2B3FBFAF11AFB01F080B283421FFA28
:100CD00081F840F2E24280F09480C01A5043A0FBB9
:100CE000070157A3D3E90023FFF7FAF920F07F406B
:100CF0000644E38DB4F814211344994494F8393030
:100D0000A9EB0B09C14440F2E24BDB09A4F82E9099
:100D10000BFB0AF900F08280226CA36C02FB1533F6
:100D2000A3641BF064F8054694F87401C0F3420014
:100D30000EF042FC029A454B05440BFB02F2226581
:100D400009FB05F50022C4F87C2105F57425A26C89
:100D500005F23F25B5FBF3F54FEA590305FB08F013
:100D6000963B0244256463649A4294BFA264A364E0
:100D7000A0FB070132A3D3E90023FFF7B1F9039BDE
:100D8000361AB3FBFBF00BFB00F0A0FB07012CA312
:100D9000D3E90023FFF7A4F9A9EB050520F07F476D
:100DA000BDF83C30A385BDF84030A4F88C314946ED
:100DB0002046A4F82AA00CF08BF8A18D244A881DA7
:100DC0004A44B2FBF9F293B29842A4F886313EBF8E
:100DD0005B1A063B9BB2A4F88231019B13B100233E
:100DE000A4F88E3133462A4639462046FFF71CFDCB
:100DF00094F8803143F0010384F8803105B0BDE8F8
:100E0000F08F0AFB113080B25043A0FB07010CA306
:100E1000D3E90023FFF764F9361A6AE70D490E4853
:100E200040F6BD0217F01EF8002787F31188BFF3C4
:100E30006F8F0323184602DF4D46B1E7AFF3008002
:100E40008D49FD1A0700000000CA9A3B40420F007E
:100E50007FC3C901A0F8010046D8010000000000CE
:100E60002DE9F04F834693B0144690F81C900A6821
:100E7000D0F81E0010900F46BBF82210ADF84410B9
:100E800012AB13E90300ADF83C105946D2F800A0AC
:100E900051F82E3B0E902246BBF82E0052F8085B0C
:100EA000208189789170DBF82A206260DBF83A2093
:100EB000A26104F118009BF83E20027105210B93FA
:100EC00018F019FD627F00F03F0060F305026277C1
:100ED0009BF83F20C2F30401A177BBF83410E181F5
:100EE0000128C9F3801902F01F028EB205D91B3206
:100EF00002F01F020B2A00D8CEB90021CAF8141044
:100F000094F820200B9861F3000284F8202001253A
:100F1000DBF80C408BF80450594608F027FB20689A
:100F20002571214613B0BDE8F04F19F031B83A6889
:100F300000215160BBF836202282BBF832300C937E
:100F40002846B4F80E8019F057FF9BF83F2095F81B
:100F50007411520962F3430185F874111AF047FFC6
:100F60000D9095F87401C0F342000EF025FB0D9A28
:100F700040F2E24606FB08F8104408FB00F000F5DA
:100F800074209F4A00F23F20B0FBF2F04FEA580273
:100F9000963A6062A2629BF831207243A263BBF86A
:100FA0003820A5F88C21414628460BF091FF954941
:100FB000954AC5F890214144B1FBF8F188B2A5F8F3
:100FC0008601228A961DB042C1BFC2F57F42FA3225
:100FD000121890B2A5F882016268C5F878215A46C5
:100FE00012F81C6FD207C6F340160CD58749884803
:100FF000F82216F037FF002282F31188BFF36F8FBB
:101000000322104602DF4FF48072ABF81C200E98CA
:10101000BDF83C208BF81E90CBF81F00ABF82320C6
:10102000E289ABF82620228AABF82820B5F88C217B
:10103000ABF82A2095F87421C2F342028BF82C20D9
:1010400028460AF0D1FDA081ABF80600D7F804903D
:101050000B98594608F08AFAA389A9F806301C2390
:10106000D9F800B089F8043046B1637F43F04003FB
:101070006377201D1AF02CFE0126E08389F81C609E
:101080004946584618F084FF94F85B00B4F8509035
:10109000B4F85260012100F007001AF076FE834692
:1010A00006EB0900DFF86CC15B4E00F2D510584426
:1010B0000721E0FB06C14FF0000931236046C5E976
:1010C0000193C5F80C904CA3D3E90023FFF708F86F
:1010D00020F07F402861F9680C9A646A40F2E2438C
:1010E0000120A8EB040403FB02184A46022107F082
:1010F000BBF850460AF0BEFA08F2B248A8EB0B085B
:101100003DA3D3E900238346A8FB0601FEF7E8FFD1
:10111000BB684249009120F07F483A3B0BF1020244
:101120004344D2B20121CDF804A0484607F0F6FEB0
:1011300051460DF033FC9AF82430DB0707D5012225
:10114000CDF800904B461146484607F0ADFE2846C4
:101150000AF04AFDA4FB064627A3D3E900238146F3
:1011600031462046FEF7BCFFBB68A3F13A0A40F2C5
:10117000D11308932A4BCDE906532A4B05932B69CB
:101180000493294B20F07F45A5FB03310722E01A89
:1011900002FB051166EB010109F103074FF47A72B6
:1011A0004FF000090023CDF80C90FEF799FFFFB235
:1011B000CDE90150CDF8008053463A46012148461A
:1011C00018F071FE10F0FD0F0CD0104910484FF4CC
:1011D000E97216F047FE89F31188BFF36F8F03237E
:1011E000184602DF01220221104613B0BDE8F04F7D
:1011F00007F03AB8AFF300808D49FD1A07000000F0
:1012000040420F007FC3C901404B4C0053FB01001B
:1012100046D801008C49FD1A00CA9A3B9DE900009E
:1012200071E90000D5E900008D49FD1A014B022249
:101230001A70704758260020084B07B501221A7013
:1012400000220023CDE90023054841F69A1200232D
:1012500015F0F0FE03B05DF804FB00BF5826002037
:10126000B0040020CA0738B504460D4608D50B4B1C
:101270000B4910F0010F08BF19460A4800F058FD4D
:10128000AB070AD5064B0549074814F0020F18BFF3
:101290001946BDE8384000F04BBD38BD60D60100AE
:1012A00058D601003CD00100C8CF010010B586B06F
:1012B000002105AA41F2090002F084F9014620B19B
:1012C0000B4816F0B9FD06B010BD059BD8684478F0
:1012D000037942798179029484780194C0780090EE
:1012E000044816F0A9FD059810F0CEF8EBE700BF12
:1012F00069D6010090D6010010B50C4816F09CFD8F
:1013000011F0AAFE014620B1094816F095FD002013
:1013100010BD084811F0D4FE04460028F7D001465D
:10132000054816F089FD05482146EEE7C3D60100C1
:10133000D0D6010065120000EBD601000AD70100EB
:1013400008B5002003F022F8014620B1054816F048
:1013500073FD002008BD044816F06EFDFFF7A6FFE0
:10136000F7E700BF27D7010047D7010030B5134B7F
:101370001349144D0422C3F80C25134AD3F80C3535
:1013800013780B76F92B9ABF0133DBB2012313706C
:101390000FCD89B003AC0FC42B68236000230B4929
:1013A0000093022203A803F0BFFC014610B10848D5
:1013B00016F042FD002009B030BD00BF0010004013
:1013C0005D04002010CF010059260020B8CF010095
:1013D0005ED7010038B50D4C2578012D0BD1FFF7F4
:1013E000C5FF0B4816F028FD2946002011F0EEFE3F
:1013F0000323237038BD022DFCD116F002FC0548F2
:1014000016F01AFD00210846F0E700BF582600201C
:1014100084D7010098D7010007B500234FF480322C
:101420000348CDE9002315F005FE03B05DF804FB89
:10143000E804002038B551B302680B1F9B1AD90885
:1014400023F0070313445C88E00708D410491148CF
:10145000AF2216F007FDAF210D4816F0FAFC10463A
:1014600016F0D1FB084432F83050401B814206D0C0
:1014700007490848B72216F0F5FCB721ECE724F03D
:1014800001045C80BDE83840104616F079BC38BDD8
:1014900023D8010046D801002DE9F8434B1E0B402C
:1014A00006680F46144611D0C1F1000909EA010986
:1014B0004A46042A03F1FF3128BF042219420CD105
:1014C0001F46C4B900252846BDE8F88304290FD873
:1014D000BDE8F843114616F084BC2B492B484FF465
:1014E000A27216F0BFFC28484FF4A27116F0B1FCAE
:1014F00099460422E5E7B368B3EBD40FE2D904F1CF
:101500000B013944891AC908304616F0D2FB8046CF
:101510000028D7D009F1040505EBC0057B1E354432
:101520001D44B5FBF7F57D43A5EB09052C442B1FA6
:1015300007349B1B24F00704A41BB0EBD30F4FEA26
:10154000D3074FEAE40408D201463A46304616F083
:10155000FDFB4146304616F05BFB3946304616F03F
:1015600052FB3844844207D23046224616F0EEFB46
:101570002146304616F04CFB06EBC706738843F055
:10158000010373809FE700BF23D8010046D8010004
:10159000B2F5802F2DE9F0410AD33449344840F2A6
:1015A000EB1216F05FFC40F2EB11304816F051FCE4
:1015B000042A08D82D492E484FF4F97216F052FC2F
:1015C0004FF4F971F1E7043ACD1D8E1825F00705A7
:1015D00026F00706761B172E4FEAD60708D82349B0
:1015E000234840F2FB1216F03DFC40F2FB11DCE711
:1015F000B7FA87F4C4F12002C4F12404A40007342C
:10160000E408631C4FF00008BB420560AF60C5F8FA
:101610000C8008D9154916484FF4037216F022FCC5
:101620004FF40371C1E74146920005F110001BF031
:10163000BFFA630043F001036B8005EBC4023B1B60
:101640005900A5F800805180AA1925F83440A2F865
:101650000280AB5305EBC70321465A8842F00102D2
:101660005A802846BDE8F04116F0D2BA23D80100CE
:1016700046D80100014B1B68184700BF90010020AD
:1016800030B585B004460D461022002168461BF097
:101690008FFA02238DF802302A46044B019321462B
:1016A000684616F041F805B030BD00BF7516000061
:1016B000014B1860704700BF9001002080B50546BF
:1016C0000E461746984615F049F803461BF080FA77
:1016D000DFF81890044649F8003042463046394653
:1016E000A84754F8090000F00FFF00BF08000000F1
:1016F0002DE9F84F04460846A38B1907164612D465
:10170000022803F0070162D1204616F0B8FB88B129
:101710000138042800F22581DFE810F05900230188
:101720007E00C800F50001280CBF43F0100143F013
:101730002001A18304F1140015F098F9002800F0AD
:10174000AB8086F31188BFF36F8FBDE8F88F03F08D
:101750000702501F01281ED80020062A2768C4E966
:10176000000014D13A4603E0E08B0130E0831268B8
:10177000002AF9D123F0070343F00202A283204696
:1017800016F07DFB90B342F02002A2832EE023F0FE
:1017900007039AB2F2E7042A33D123F007039AB27F
:1017A000A283204616F06BFB10B142F02002A28308
:1017B000A38B03F00709894540F0DC80A18BCA06A2
:1017C00040F1218121F01003A38301F00701D4F837
:1017D0001880A38BB8F1000FB9DA0022276823F034
:1017E0000703C4E9002243F00103A383A38B03F0A2
:1017F0000709894540F0BF80002FDFD00025AA46A9
:1018000040E08549854840F21B1216F02BFB40F260
:101810001B11814816F01DFB41B17F497F484FF4F1
:10182000AB7216F01FFB4FF4AB71F2E7236843B9BC
:1018300079497A4840F2571216F014FB40F25711DA
:10184000E7E723691D6845B9734974484FF4AD72E1
:1018500016F008FB4FF4AD71DBE7A38B23F0070311
:1018600043F006039BB2A3830F4688464FF0060958
:10187000A268002A40F08180002F40F08180002D76
:101880009CD0BA4643F0080304F1140BA3835846D6
:1018900015F0ECF8002875D16149604840F231122A
:1018A00016F0E0FA40F231115D48B3E7022908D0A2
:1018B00059495A4840F25D1216F0D4FA40F25D11CF
:1018C000A7E7E78B47B1544954484FF4AF7216F07D
:1018D000C9FA4FF4AF719CE723695D6845B94E4979
:1018E0004E4840F2611216F0BDFA40F2611190E7E5
:1018F000A38B23F0070343F004039BB2A383B846F2
:101900004FF00409B4E7012908D0434943484FF494
:10191000B27216F0A7FA4FF4B2717AE7236843B9AE
:101920003D493E4840F2651216F09CFA40F26511BE
:101930006FE723699D6845B9374938484FF4B47259
:1019400016F090FA4FF4B47163E7A38B23F007030A
:1019500043F005039BB20027A383B8464FF0050967
:1019600086E72D492D4840F26B1216F07BFA40F2C3
:101970006B114EE7002700257AE74FF0010A81E757
:1019800092467FE786F31188BFF36F8FBAF1000F9D
:1019900016D147BB15B123492046A847EFF311865E
:1019A000202383F31288BFF36F8F584615F050F849
:1019B00008BB1B491948882216F054FA882173E79E
:1019C000A1680029E5D00E680029E2D0D1F804A072
:1019D00043464A462046D0471EB1336831461E462C
:1019E000F2E73346FAE7394643464A4620463F681F
:1019F00016F071FACDE7584615F04EF8A38B23F098
:101A00000803A383DAE68B067FF594AE21F020036A
:101A1000A38301F0070177E66FD8010046D80100E3
:101A200094D80100291A0000F8B504460D4600F1CB
:101A30001406EFF31187202383F31288BFF36F8F0F
:101A4000304615F005F840B909490A48882216F0D1
:101A500009FA0748882116F0FCF9304615F01CF801
:101A6000A5613A4620460121BDE8F840FFF740BE97
:101A700094D8010046D801002DE9F04704460F46EE
:101A800016F019FA051E5DDB04F11409EFF3118A53
:101A9000202383F31288BFF36F8F484614F0D8FFDA
:101AA000804638B933493448882216F0DBF988215A
:101AB00030483CE0484614F0EFFFE38BA68B4FF62E
:101AC000FF72934206F007063FD0022E10D1013379
:101AD000E3833546484614F0C9FF00283BD1254929
:101AE000254840F2311216F0BDF940F23111DFE71E
:101AF000062E13D8DFE806F0092C1212090409009B
:101B00006FF085054FF00008E4E700233B60636851
:101B10007BB9C4E900777EB13546F3E7174916482B
:101B20004FF4E47216F09EF914484FF4E47116F085
:101B300090F91F606760EEE7524602212046FFF7EA
:101B4000D7FD35462846BDE8F0876FF00A05D9E78E
:101B50006FF00405D6E78AF31188BFF36F8FB8F1F1
:101B6000000FEFD0002332463946204616F0B3F975
:101B7000E8E700BF94D8010046D801006FD8010003
:101B8000F8B5054600F11406EFF31187202383F31F
:101B90001288BFF36F8F304614F05AFF38B92049CE
:101BA0002048882216F05EF988211D4825E030463D
:101BB00014F072FFAC8B04F00704022C12D0012C3D
:101BC0000CBF6FF004046FF08504304614F04EFF34
:101BD00008BB1349134840F2311216F043F940F2A2
:101BE0003111E2E7EB8B53B90F490E4840F2EF1287
:101BF00016F038F90C4840F2EF1116F02AF9013BC3
:101C00009BB2EB83002BE0D13A4621462846FFF7F2
:101C10006FFD2046F8BD87F31188BFF36F8FF8E79B
:101C200094D8010046D801006FD8010008B5426879
:101C3000816002F00302022A03460AD0032A4FF011
:101C4000000103D0012A0AD1596006E018685960E2
:101C500008BD186800225A6050B90020F8E706490C
:101C60000648452216F0FEF80348452116F0F1F823
:101C700015F0B4FCF1E700BFC1D8010046D801005F
:101C8000014B036000207047B0D0010008B5054843
:101C900016F0D2F8044816F0CFF8BDE80840034823
:101CA00016F0CAB8E7D801001BD901004ED90100CF
:101CB0002DE9F043CC68064685B020680D461746EE
:101CC000984640F6CD42002312F0B8FD002808DA0D
:101CD00015491648222216F0C5F82221124816F09E
:101CE000B8F8D4E9011948461AF0F1FEBDF83030D1
:101CF000009380B2CDE90190294643463A463046EA
:101D000017F050FC0546206812F04EFE002806DA57
:101D100005490648292216F0A5F82921DEE72846BC
:101D200005B0BDE8F08300BF7CD9010046D80100B2
:101D300070B50368DD68064686B028680C4640F634
:101D4000CD42002312F07AFD002808DA1C491D4814
:101D5000352216F087F83521194816F07AF86A68A6
:101D6000A86821461AF0A3FE2046FEF72BFB6B68FD
:101D7000984203D91448572116F0EBF8286812F05E
:101D800013FE002806DA0E490E48422216F06AF8C1
:101D90004221E1E76968366820461AF098FE182269
:101DA0000546002168461AF003FF69460020CDE988
:101DB0000164ADF80C5006F0BBF806B070BD00BF72
:101DC0007CD9010046D80100ADD901000449431E69
:101DD0000F3013F8012F8A5C1A708342F9D17047D3
:101DE000E2D90100F0B5264E07460C460FCE8DB065
:101DF00001AD0FC50FCE0FC596E8070085E80700B7
:101E00003846002F38D0002C38D0381F21460246E3
:101E100010344B780D781B0443EA0563CD782B43CF
:101E20008D78043143EA05238C4242F8043FF0D117
:101E3000144C04218A07036916D1C3F30742A55C39
:101E40001A0EA25C42EA0562C3F30725DBB2655DA8
:101E5000E35C42EA054242EA032221F00303303305
:101E60006B4453F82C3C534050F8042F013153403D
:101E70002C290361DED101200DB0F0BD2046FBE727
:101E800024CF0100E2D9010037B505460C46C9B19F
:101E90008B680093D1E900231248452116F059F8C8
:101EA00063690093D4E903230F48452116F051F8E4
:101EB000E2690E48452116F04CF8A2690C4845210C
:101EC00016F047F8012D06D1EFF305820948103AC4
:101ED000452116F03EF82146284603B0BDE83040C3
:101EE00012F028B9E2DA010016DB01004ADB01003A
:101EF0005EDB010091DB010030BFFFF7FDBF00BFDB
:101F00002DE9F0410B4EDFF8308006EB0807CC1BC3
:101F100005463246094920461AF03CFEA0194246C1
:101F20000021083C1AF044FE6C6707F10800BDE888
:101F3000F08100BF000000000400000004CF010099
:101F4000074A936893F90E10002907DB5269934200
:101F50001FBF044A536843F080535360704700BF6B
:101F6000E825002000ED00E02DE9F8433D4D8046D6
:101F700089463D484521174615F0EBFFAB6ADA0666
:101F800026D53A48452115F0E4FF1124AB6A1B071A
:101F900004D53748452115F0DCFF1224314DAB6ADA
:101FA0009E0717D53348452115F0D3FF6E6BAB6AFA
:101FB0001C0645D530483246452115F0CAFFB9F117
:101FC000000F03D0AB6A23F08003AB62132403E05D
:101FD0001024DBE76FF01506224DAB6AD80704D555
:101FE0002648452115F0B5FF1424AB6A990604D59F
:101FF0002348452115F0ADFF15241A4DAB6ADA06CA
:1020000002D4AB6A9B070AD56B68180507D5414611
:10201000304600F083FBB0B180F309880224114BF5
:102020009A6A920642BF5A6A22F400525A629A6A27
:1020300042F0FF029A6200233B702046BDE8F8831D
:102040006FF01506C2E7AB6AD906E8D50D490E4810
:1020500040F25D1215F006FF0A4840F25D1115F0DE
:10206000F8FE00BF00ED00E0A9DB0100C4DB0100C9
:10207000FCDB010014DC010031DC01004CDC010060
:1020800070DC0100A4DC010046D8010010B5204C32
:102090002048452115F05DFFA36A990136D51E48F9
:1020A000452115F056FF1E20A36ADA0104D51B480E
:1020B000452115F04EFF1F20154CA36A1B0304D5C4
:1020C0001748452115F045FF2120A36A590304D57F
:1020D0001448452115F03DFF22200D4CA36A9A03B8
:1020E00004D51148452115F034FF2320A36ADB03F2
:1020F00004D50E48452115F02CFF2420044A936A8C
:102100006FEA03436FEA1343936210BD1D20CBE7D0
:1021100000ED00E0D6DC0100F3DC01000BDD010086
:102120002ADD01004DDD010077DD010096DD0100B3
:1021300070B5284C06460D462748452115F009FF85
:10214000A36AD9043BD52548452115F002FF172085
:10215000A36A1A0504D52248452115F0FAFE182075
:102160001C4CA36A9B0511D51E48452115F0F1FEB4
:10217000A26BA36A180408D51B48452115F0E9FE97
:102180001EB1A36A23F40043A3621920114CA36A71
:10219000590504D51548452115F0DBFE1A20A36A20
:1021A000DA050ED51248452115F0D3FE1B20094A49
:1021B000936A43F47F43936200232B7070BD162013
:1021C000C6E7A36A9B04F2D50A48452115F0C1FE73
:1021D0001C20ECE700ED00E0C6DD0100E1DD0100C0
:1021E000FCDB0100F7DD010015DE01002FDE010040
:1021F0004FDE010070DC0100F0B56D4B04465868FD
:102200008BB0C0F30803002585F31188BFF36F8FEF
:1022100002F07F46B6F17F4F07D102F00C06082E80
:102220000ED16448452115F094FE634963484FF48C
:102230008B6215F017FE4FF48B615F4815F009FEB5
:1022400016074CBF0C460125002CEED00026DA1EE6
:102250008DF80760092A00F29980DFE802F0058C0A
:1022600090779797979797945548452115F071FE69
:102270008DF807604E4EF36A9A0705D551484521FF
:1022800015F067FE002329E0F36A002B02DA4E48BE
:102290004521F5E7F36A5B0064D54C48452115F00C
:1022A00058FE7369A26943F480737361BFF34F8F63
:1022B000BFF36F8F736932F8022C23F4807373615C
:1022C000BFF34F8FBFF36F8F4DF602739A4224D145
:1022D00022683F48452115F03CFE23689DF8072001
:1022E000CAB902AE04F1200720686168324603C211
:1022F0000834BC421646F7D1099A002D52D0C2F3D9
:10230000080121B96FEA52226FEA4222099202A91A
:102310001846FFF7B9FD0BB0F0BDB36ADBB23BB1B5
:102320000DF1070201212046FFF71EFE0346D5E707
:10233000B36A13F47F4F05D00DF107010120FFF7B9
:10234000F7FEF3E7B36AB3F5803F02D3FFF79EFED3
:10235000ECE71949194840F22A3215F083FD40F2A2
:102360002A316AE71449154840F22E3215F07AFDF9
:1023700040F22E3161E70DF107020021D3E70DF1A4
:1023800007010020DBE71348452179E71249134A8A
:1023900010F4F87F08BF0A461148103B452115F09C
:1023A000D8FD6FE722F4FF7222F00102AEE700BF12
:1023B00000ED00E09ADE0100A4DC010046D8010037
:1023C000CADE0100E6DE01000CDF01001FDF0100B4
:1023D00043DF010064DF01006CDE010081DE0100EB
:1023E0008DDF0100024A536943F0100353617047C7
:1023F00000ED00E0EFF30880EFF3098101B57246CC
:10240000FFF7FAFE01BD00BF002080F31488BFF380
:102410006F8F10F023FF00200D490860BFF34F8F2E
:102420000C4880F3088800F03DF8202080F31188E4
:1024300009484FF40461401880F30988EFF31480D1
:102440000221084380F31488BFF36F8F00F02EF948
:1024500094ED00E0004C0020403E0020BFF34F8F81
:102460000549064BCA6802F4E0621343CB60BFF330
:102470004F8F00BFFDE700BF00ED00E00400FA054C
:102480000749D1F890200023C2F30722184693424F
:1024900000DB7047C1F89830C1F8A0000133F6E7BF
:1024A00000ED00E008B572B6002383F31388FFF750
:1024B000E7FF144B4FF0FF32C3F88020C3F88420AD
:1024C000C3F88820C3F88C20C3F89020C3F8942068
:1024D000C3F89820C3F89C20C3F88021C3F8842156
:1024E000C3F88821C3F88C21C3F89021C3F8942144
:1024F000C3F89821C3F89C2162B6BFF34F8FBFF396
:102500006F8F08BD00E100E0084B9B6883420BD150
:10251000EFF3058343B1064B5A6842F080525A608C
:102520005A6A22F400425A6214F01EB9E8250020CB
:1025300000ED00E0094A93686FF00A01D967084985
:1025400098674B6843F080534B60002383F31188F6
:10255000BFF36F8F9368D86F704700BFE8250020E6
:1025600000ED00E010B50446EFF31183202383F360
:102570001288BFF36F8F0A4B58699860094B4FF070
:1025800000625A60084B426F1A600022836F8267B4
:1025900083F31188BFF36F8F00F028F9204610BD38
:1025A000E825002000ED00E0E00F00200B498A68DC
:1025B0004FF030001044EFF3098C80E8F01F7446B0
:1025C0007046FFF7CFFFA64604498A6802F1300043
:1025D00090E8F01F8CF3098870470000E825002080
:1025E0001EF0040F0CBFEFF30880EFF30980816940
:1025F00011F8021C0229FFD001B515F0E1FE01BD62
:1026000040B2002807DB044A4109012300F01F0003
:10261000834042F82130704700E100E040B20028DA
:102620000CDB4309064900F01F00203301228240E1
:1026300041F82320BFF34F8FBFF36F8F704700BF68
:1026400000E100E0054B420900F01F0053F8222092
:10265000012303FA00F01040704700BF00E100E0E2
:102660000131072908B508D90D490E48582215F03F
:10267000F9FB0B48582115F0ECFB40B20028ACBF29
:1026800000F16040084B4FEA4111B8BF00F00F0065
:10269000C9B2AABF00F56140195480F8001308BD03
:1026A000A5DF010046D8010014ED00E00B4A08B593
:1026B0000B4B22F07F029A60BFF34F8FBFF36F8FF7
:1026C000D3F8882022F47002C3F8882011F01CFE91
:1026D00014F0EAF900F060F811F05AFE0000000072
:1026E00000ED00E042F8203C009B42F81C3C0A4907
:1026F000019B42F8183C029B42F8143C21F0010176
:102700004FF0807342F8043C42F8081C0023203A42
:1027100002658367704700BFBD160000094A034683
:10272000906870B113F1160F406E05D0A0F1400211
:102730009A4205D8834203D2814228BF00207047C5
:1027400000207047E825002008B515460B4A0C4BC1
:102750009060426F1A600E4600F048F82C4686F3EF
:1027600009884FF00000074B984720464FF00001C2
:102770004FF000024FF00003034C2047E8250020F3
:10278000E00F0020DF830100BD160000014B102286
:102790001A61704700ED00E0044800232021C218B0
:1027A0000133272B82F80013F9D1704700E100E0D4
:1027B00008B5EFF30583064A103B02EBC30152F85C
:1027C000330049688847BDE80840FFF7B9BB00BF40
:1027D000C8CC0100024B034A0348012100F084B831
:1027E0000000012000000020B0D00100426E054B27
:1027F000403A1A60044A4021C3E9011218460121F7
:1028000000F08EB8E40F002000000B1508B5104A48
:10281000D2F89030C3F30723013B984207D9024610
:1028200045210C4815F095FB6FF0150008BDC2F866
:1028300098000B6823F01F03034343F01003C2F812
:102840009C308B6843F00103C2F8A030EEE700BF74
:1028500000ED00E0E0DF0100F0B50F4685B01C465A
:1028600005460026BE420CDA686808B38CB1431EE8
:10287000184209D010483246452115F06AFB6FF026
:102880001502104605B0F0BD1F28F3D929680B4288
:10289000F0D12B68019315F0C5FDAB6801A9034386
:1028A000D0B20393FFF7B2FF10F1160FE7D0421C2E
:1028B00001360C35D6E700BF0BE00100044B0522C2
:1028C000C3F89420BFF34F8FBFF36F8F704700BFE3
:1028D00000ED00E0BFF35F8F024B0022C3F89420AD
:1028E000704700BF00ED00E010B50A4C01232278CC
:1028F000FFF7B2FF207016300AD10749074840F2AF
:10290000671215F0AFFA044840F2671115F0A1FA0A
:1029100010BD00BF5A26002033E0010046D8010058
:1029200008B5114A00231278FFF796FF10F1160F31
:1029300008D00E4A0021D2F89030C3F30723984202
:102940000BDB08BD0A490B484FF4C37215F08AFA35
:1029500007484FF4C37115F07CFAC2F89800C2F82A
:10296000A0100130E7E700BF5A26002000ED00E08C
:1029700033E0010046D801002DE9F04F704871495D
:10298000D0F890300D68C3F307239D4285B00AD973
:102990006D496E484FF4CF7215F064FA4FF4CF7161
:1029A000694815F056FAFFF795FF496800229542ED
:1029B00001F10C0129D1664C664F25706846FFF77E
:1029C0005FF9DFF89481DFF8949106460025AE4266
:1029D0002ED123785A490020D1F89020C2F3072243
:1029E0009342C0F2A380FFF769FFD1F89030C3F3A0
:1029F0000723082B00F0A0805349544840F20E22D0
:102A000015F030FA40F20E21CAE7C0F8982051F8CC
:102A10000C3C23F01F03134343F01003C0F89C3019
:102A200051F8043C43F00103C0F8A0300132BEE786
:102A3000009A02EB05132901D3F80CA00AEA07005B
:102A4000B0F5000F58D00AD8B0F5001F34D0B0F55B
:102A5000800F46D0B0F5801F12D00135B7E7B0F136
:102A6000807F54D0B0F1007FF7D19868D3F804A0EC
:102A7000525815F0D7FCCDE901A240F480200BE0BC
:102A80009868D3F804A0525815F0CCFCCDE901A207
:102A900040F0885040F430200390207801A9FFF7DF
:102AA000B5FE00283EDA284928484FF4E47215F0B4
:102AB000D9F94FF4E47173E79868D3F804B0525829
:102AC00015F0B0FC1AF0010F40EA0800CDE901B2A0
:102AD0000390E2D01C491D486C2215F0C3F96C210B
:102AE0005EE79868D3F804A0525815F09BFCCDE936
:102AF00001A240EA0900CFE79868D3F804A0525831
:102B000015F090FCCDE901A240F08270C4E798680E
:102B1000D3F804A0525815F085FCCDE901A240F08D
:102B20008870B9E723780133237096E7C1F89830AD
:102B3000C1F8A00001334FE7002005B0BDE8F08FD9
:102B400000ED00E0BCD0010033E0010046D80100F8
:102B50005A2600200000F0FF0000081100000207C4
:102B600008B5024B1B689847002008BDF00F0020F5
:102B7000034B044A1860937843F002039370704744
:102B8000F00F00209401002008B50649064821F006
:102B90000701C1F1005202F58032FEF7F9FC002076
:102BA00008BD00BF2B5D0020F40F0020024B012266
:102BB000C3F840250020704700E0014020B1034BDE
:102BC000800143F001031847704700BFB0CF0100F8
:102BD00008B5044819F036FD00280CBF6FF012004C
:102BE000002008BD8CCC01000E4B402970B528BFD9
:102BF00040210D4C46181D46B04203F1020304D19A
:102C0000002305F81130074870BD02781209A25C54
:102C100003F8022C10F8012B02F00F02A25C03F85B
:102C2000012CE9E779260020DBE0010030B50378CC
:102C30008BB0044607AD032B21D8DFE803F0021A5E
:102C40001C1E12492846FDF7B5FB059563780493D1
:102C5000A3780393E3780293237901936379009334
:102C6000A3790B4A0B481E2114F032FD09480BB022
:102C700030BD0949E6E70949E4E70949E2E7094ABD
:102C80000A21284614F024FDDFE700BF8FE0010091
:102C9000B8E001005B26002096E001009DE0010005
:102CA000A7E00100B1E0010030B50A4D0A4B85B044
:102CB000002428460293039412F002FC02AB009316
:102CC000284606490A234FF4A86212F00FFC20465A
:102CD00005B030BD30070020ECE00100402B0020A3
:102CE0000146014812F08EBC300700200378012B0A
:102CF00030B513D0022B27D07BB9194B0A4603F10C
:102D0000100453F8045B42F8045BA342F9D11B782A
:102D1000137043884B731B0A8B7330BD104B0A46EC
:102D200003F1100453F8045B42F8045BA342F9D1A9
:102D30001B78137043684B73C3F307221B0CCB73D0
:102D40001B0A8A730B74E8E700F1100350F8042B98
:102D500041F8042B9842F9D103780B70DDE700BFEE
:102D6000F5E00100052838B5054603D82A21C14001
:102D7000C90708D40A490B48422215F073F80848DD
:102D8000422115F066F8084819F091FA044620B17E
:102D900001210C300EF04CFC2576204638BD00BFDA
:102DA00006E1010046D80100C8060020132810B52E
:102DB0000CD10A4819F07BFA044628B101210C30E5
:102DC0000EF036FC01232376204610BD09B10448DD
:102DD000F0E7BDE810400120FFF7C4BFFC0600206B
:102DE0002C060020C36802481A78572115F0B1B8A4
:102DF0003DE1010038B505461446084602EBC30321
:102E00009C4202D16FF05E000FE0224612F8081BD0
:102E1000A9420FD1028A6378934207D906482B460C
:102E2000452115F096F86FF0150038BD6368984796
:102E30000020FAE71446E3E76AE1010070B5C668CE
:102E40003378B6F8014083B90F21204602F022FD05
:102E5000F378054650B90A4A118831B96FEA04502F
:102E60006FEA10501080074A137070BD4372012141
:102E700002F020FC2846BDE8704002F0BFBB00BF56
:102E80003C260020FA26002070B5C3681D78B5B92D
:102E9000B3F801600F21304602F0FCFC044630B963
:102EA00032460748BDE87040452115F052B8294622
:102EB00002F000FC2046BDE8704002F09FBB70BDF0
:102EC00091E1010010B5C368B3F80140012120462B
:102ED00002F0E0FC30B922460448BDE8104045212C
:102EE00015F037B8BDE8104002F088BBBCE1010026
:102EF00010B5C3681C880121204602F0CBFC30B914
:102F000022460548BDE81040452115F022B8BDE82D
:102F1000104002F073BB00BFBCE1010008B5012105
:102F20000C300EF0D7FBBDE808400278014845217F
:102F300015F00FB8E5E10100014608B507480EF0AD
:102F4000E9F90749074819F068FC021E05DABDE8EF
:102F500008400548452114F0FCBF08BD440100208D
:102F6000E0010020500800200CE2010010B5084CE0
:102F70000146062294F86F0002F00EFE38B994F86C
:102F80006F000449BDE81040052202F005BE10BDE7
:102F90000000002075E0010073B505460C46FFF700
:102FA00029FF5F300BD1268AE0683146FFF71CFE0F
:102FB000334600902A460348572114F0CAFF02B056
:102FC00070BD00BF2EE2010070B53B480EF0F4F971
:102FD000044600286FD0027E012A44D0032A67D11C
:102FE000028A032A04D83548452114F0B2FF11E0C3
:102FF00004210C300EF06EFBFF22438806886276B7
:10300000228AC6F30B009342608307D02C484521E7
:1030100014F09FFF20460EF037FA13E00F2102F064
:1030200039FC054618B9628B26484521DDE702F0D8
:103030004FFC320B60762146284602F083F9284681
:1030400002F0DCFA204BD3F84431002B33D01F4977
:103050001F4819F0E2FB021E2DDABDE870401D4842
:10306000452114F076BF028A012A02D81A48452168
:10307000BBE702210C300EF02DFB0546007815F061
:1030800051FA10F002060CD11449154840F6A4225A
:1030900014F0E8FE86F31188BFF36F8F0323184600
:1030A00002DF104A287804232146FFF775FFB1E7B5
:1030B0000D48452199E770BD4401002055E201000B
:1030C0007BE20100A4E2010000000020E0010020FA
:1030D000500800200CE20100CBE20100ECE201000C
:1030E00046D801006CD1010020E3010010B5012198
:1030F00004460C300EF0EEFA2146034A0078BDE893
:1031000010400723FFF748BF8CD1010010B5012103
:1031100004460C300EF0DEFA094A007800232146FE
:10312000FFF768FE5F300AD1218AE068FFF75CFD97
:10313000BDE8104002465721024814F00ABF10BDF6
:10314000C4D1010039E3010070B5C568B5F801606C
:103150000121304602F09EFB044630B932460D484C
:10316000BDE87040452114F0F4BE2B783BB9D5F88A
:103170000330C0F8B530D5F80730C0F8B930201D9D
:103180004FF4805115F0E0F92046BDE8704002F0A0
:1031900035BA00BFBCE101002DE9F047884617466B
:1031A0000646002800F09280BFF35B8FDFF8209185
:1031B000002359E8004F49E80032002AF9D1BFF353
:1031C0005B8F34B932464348BDE8F047452114F0DF
:1031D000C0BE20460DF08AFF3F4D4FF00C0A0AFB9F
:1031E00000504388B34221D020460DF07FFF0AFBF8
:1031F0000050324643883948452114F0AAFEBFF3F7
:103200005B8F59E8003F49E80042002AF9D1BFF33B
:103210005B8F002B5AD03249324840F6FD0214F041
:1032200021FE2F4840F6FD0114F013FEA7420ED0F8
:1032300020460DF07FFF04F10C0601212176304677
:103240000EF0F6F93A8AF968304619F04AF8204645
:103250000DF04CFF0C2606FB00504368ABB1B8F1F3
:10326000000F12D120460DF041FF06FB0050012156
:103270004268D2E90003127A03F01F06B1405B09ED
:10328000F2B100EB830015F05FF920460DF02EFF40
:103290000C2606FB005083686BB120460DF026FF1C
:1032A000704305F8008020460DF020FF06FB005516
:1032B000A86811F001FD2046BDE8F0470EF0E4B823
:1032C000C94300EB830015F04EF9DEE7BDE8F08757
:1032D0004001002062E30100001000208FE30100A4
:1032E000ECE2010046D8010038B5042104460C3058
:1032F0000EF0F0F94578017840882246FFF74CFF40
:1033000025B10348BDE8384011F0D6BC38BD00BF38
:103310002801002038B5032104460C300EF0DAF9FC
:10332000E3680578B0F80100197840F63543984213
:1033300006D10A46BDE838400648572114F009BEB8
:103340002246FFF729FF25B10348BDE8384011F0B8
:10335000B3BC38BDC7E30100280100202DE9F74FB9
:10336000C768018A3A78012303EB82038B426BD949
:1033700000913848452114F0ECFD03B0BDE8F08F12
:1033800035484A46452114F0E4FD01363B789E421B
:10339000F3DA07EB86030F21B3F80190B3F803507B
:1033A000484602F077FA04460028E9D04FF00009B9
:1033B00000F1280BFDB1EFF3118288F31288BFF3FF
:1033C0006F8FE3696BB1013BE36182F31188BFF357
:1033D0006F8F204601F038FF013D11F06DFCADB25A
:1033E000E8E763695BB982F31188BFF36F8F45210A
:1033F000504614F0AEFD204602F000F9C5E7A16981
:10340000186860618B4208BFA06182F31188BFF326
:103410006F8FEFF3118188F31288BFF36F8FDA6833
:10342000E261C3F80C90C3F80090626A4AB9C4E93B
:10343000083381F31188BFF36F8F584611F0CAFF2C
:10344000C7E713606362F4E7DFF810A000264FF0CF
:1034500020089BE702E4010031E4010052E401008E
:1034600073B5C568B5F801600121304602F012FA63
:10347000044638B92B483246452102B0BDE87040B9
:1034800014F067BD2B781A2B00F1040619D1C3780C
:10349000012B2AD14FF48061304615F055F84205D2
:1034A0000FD4D4F8A83000936946D4F8B030019313
:1034B000204602F023FE204602B0BDE8704002F034
:1034C0009DB82B788BB9B5F80330A4F8A630B5F8C1
:1034D0000530A4F8AC30B5F80730A4F8AE306FF47E
:1034E0008071304615F03FF817E0BFF35B8F6368DB
:1034F000BFF35B8FDB05F2D52B78202BEFD194F84F
:10350000B430002BEBD0013B84F8B4304FF42032C0
:10351000002304F1600012F0D7F8204602F03CFAD4
:10352000C9E700BFBCE1010010B5C1E900239DF867
:1035300008300B720C460DF0D9FD034B0C2202FB38
:1035400000335C6010BD00BF001000202DE9F04783
:103550004FF0FF3206464FF0FF331848884618F008
:10356000A6FE044638B300F10C0701214FF0000914
:1035700038460EF05DF884F8189020460DF0B6FD40
:103580000F4D4FF00C0A0AFB0050468020460DF00C
:10359000ADFD0AFB0050C0F8089020460DF0A6FDD6
:1035A0000AFB005503213846C5F804900EF0ACF82C
:1035B000068080F802802046BDE8F087940600204F
:1035C00000100020F0B5074687B016460C4621B91A
:1035D000FFF7BCFF0446002849D0012200216846BD
:1035E00019F0B6F820460DF081FD244D0C2303FBA5
:1035F0000050C0F808D020460DF072FF0146204868
:103600000DF022FF4FF4A0220023684611F08EFB3C
:1036100068B11C491C4840F2491214F023FC0023F5
:1036200083F31188BFF36F8F0323184602DF204610
:103630000DF05CFD0C2358432D5C85B12B461348DF
:103640003A465721093D14F084FCEDB220460DF0B6
:103650001BFF092D0ED80E4B585707B0F0BD16B101
:1036600034600020F9E720460DF00EFFF9E76FF017
:103670006800F2E76FF00400EFE700BF00100020E1
:103680004C010020ECE2010046D801006EE401008C
:10369000B3E8010073B506460D4601AA002142F2C7
:1036A0002F00FFF78FFF044630B11348452114F077
:1036B00050FC204602B070BD0198C368B3F80120E9
:1036C0003280B3F803302B800DF0DEFE3288A2F199
:1036D0001B03E02B03D90948572114F03AFC2A8830
:1036E000A2F5A4739BB244F248118B42E1D904487D
:1036F000572114F02EFCDCE78FE40100B4E4010054
:10370000DEE40100F7B5144B93F99B30002B05461E
:103710000C461DDA14B9204603B0F0BD082C01AAEE
:103720004FF0000142F21800264628BF0826FFF796
:1037300049FF0028F0D1019FF9683246013128463F
:1037400019F028FA38460DF09FFE3544A41BE1E736
:103750006FF08500E0E700BF000000202DE9F04792
:10376000A04BB0F801801988047848F47042914267
:103770004FF0000604BF1E809B4B88B008BF1E7828
:10378000054634B33C2C1CD101F090F96FF0800158
:10379000103014F0E8FE0020FFF7E8FB054630B9D2
:1037A0009248452108B0BDE8F04714F0D2BB4472FE
:1037B000002101F07FFF284608B0BDE8F04701F086
:1037C0001DBF8B482246572108B0BDE8F04714F0D2
:1037D000C0BBC378012B08BF864B00F104073846F5
:1037E00008BF93F86F4014F099FE3946F0B106A86F
:1037F00014F089FED5F81130CDF81130B5F8153038
:10380000ADF815304FF0010AEB78012B25D0384682
:10381000FFF70CFA45210246774814F09AFB132172
:10382000404614F0ACFE08B0BDE8F087204614F026
:103830006EFF0346006806909A889B796868ADF829
:103840001C208DF81E30BA88BB7995F804A004902E
:10385000ADF814208DF81630D6E706A8FFF786FBE2
:10386000EB78012B04460AD101F020F96FF08001BA
:103870008146103014F077FE484615F057F8002CBA
:10388000C5D02346B5F8012023F8902B06989DF863
:103890001E20BDF81C10C4F890009A719980B5F8EC
:1038A0001730A4F8A630B5F81930A4F8AC30B5F844
:1038B0001B30A4F8AE30EB78E3700022012B62726B
:1038C00022D18DF810A0BDF814209DF81630049870
:1038D000A4F89B2084F89D30C4F8970001F0E6F826
:1038E000237A444AC3EBC3039918D358C4F89E30D3
:1038F0008B88A4F8A2308B7984F8A430D2F8E43015
:103900005D0601D501F08CFA0721204601F0D2FEB8
:1039100026B166720121204601F0CCFE204615F04A
:1039200036F8A37A072B55D1BFF35B8F6368314E0E
:10393000BFF35B8F13F4805F1FD1E3781BB196F860
:10394000D830180719D5022142F21600FFF7FEFD04
:103950000546002842D002210C300DF0D5FE238808
:1039600003800022294642F21600FFF72BFE024692
:1039700018B12248452114F0ECFA96F8D930D9074D
:103980000CD5002102231A460091204614F030FE87
:10399000024618B11A48452114F0DBFA96F8D830DF
:1039A0009A0617D5D6F868319B689B0712D50DF19A
:1039B0000E0103A8FFF76EFE60B9BDF80E20BDF83A
:1039C0000C10204614F0F6FD024618B10D484521B2
:1039D00014F0BFFA204601F011FE24E76FF06802F0
:1039E000C7E700BF3C260020FA26002006E50100BC
:1039F0002CE50100000000204AE501006BE5010014
:103A000091E50100ADE5010000B5C36889B01A7801
:103A10008DF80020B3F80120ADF80120DA788DF898
:103A20000320B3F80B20ADF81720B3F80D20ADF844
:103A30001920B3F80F20ADF81B205A7C8DF81D20FB
:103A4000586801901A899B7A8DF80A30094BADF8B5
:103A5000082068461A689B88CDF80B20ADF80F3017
:103A6000CDF81120ADF81530FFF778FE09B05DF8FC
:103A700004FB00BF89E0010070B50C4D06460FCD78
:103A80008EB06C460FC40FCD0FC40FCD0FC495E898
:103A900003000D2E84E803009BBF0EAB03EB8606EC
:103AA000034856F8380C0EB070BD00BF50CF01006F
:103AB000CEE50100024BD3F868315B69184700BFBF
:103AC0000000002038B505460C4619B9FFF73EFD49
:103AD0000446C0B140F635439D420ED12046FFF763
:103AE000E9FF054668B102464521084814F031FA5D
:103AF00020460DF0C9FC284638BD054821460DF08A
:103B0000A3FC0025F7E76FF06805F4E7D6E50100B0
:103B10004C01002070B506460D4642F221000321FB
:103B2000FFF714FD044628B9BDE870400848452158
:103B300014F00FBA03210C300DF0E6FD06808570FD
:103B4000214642F22100BDE87040FFF7BBBF00BF35
:103B5000FDE5010073B5C368D9789A781E8842EAFA
:103B60000122ADF8002059791A7942EA0122ADF814
:103B70000220D9799A7942EA0122ADF804201A7A12
:103B80005B7AB4B242EA032301212046ADF8063045
:103B900001F080FE054650B91C484521224614F02C
:103BA000D8F902212046FFF7B5FF02B070BD694683
:103BB00001F04EFF38B91E212046FFF7ABFF284623
:103BC00001F01CFDF1E70E2142F22000FFF7BEFCE0
:103BD00004460028F3D00E210C300DF095FD002393
:103BE0000680C0F80A30BDF800304380BDF80230CE
:103BF0008380BDF80430C380BDF8063003812146C0
:103C000042F22000FFF75EFFD9E700BFBCE10100F0
:103C10002DE9F84F474FDFF8208107F11409FB68C1
:103C200048466FF39433FB6001F06AFC451C414841
:103C30004FF0FF324FF0FF33294613F0D9FB68B144
:103C40003E4840F61D32414614F00CF9002383F340
:103C50001188BFF36F8F0323184602DF354EDFF85C
:103C6000E0A015B912F046FCD9E7F268C2F386323B
:103C7000022A4FD9042A57D1337B002B4DD131482A
:103C80000022002318F017FB044660B92B4840F6C9
:103C9000B322414614F0E6F884F31188BFF36F8F26
:103CA0000323184602DFDFF8A0B028484FF0FF33A7
:103CB0004FF0FF3211F03AF8DBF8403153B12448AD
:103CC000452114F046F9DBF840010DF0DDFB00233F
:103CD000CBF8403120460DF003FCCBF840012046E4
:103CE000FFF7E8FE0246A8B11A48452114F031F961
:103CF000164810F0E1FF20460DF0F8F9164B0C22A3
:103D000002FB00301F2140882246FFF745FA20467B
:103D10000DF0BAFB1436013DA3E7012BFAD130694F
:103D2000383802F031F8F5E75721504614F011F910
:103D3000F0E700BFA4010020ECE2010046D801003A
:103D40003CE601004C01002000000020280100207A
:103D50001CE60100D6E50100001000202DE9F84323
:103D6000044600F10C06304618F0AFFAB4F81080A3
:103D7000B8F1010F054609D819484246452114F00B
:103D8000E8F82046BDE8F8430DF07EBB304602213E
:103D90000DF0A0FC0746007814F0C4FB10F00109F8
:103DA00006460CD10F49104840F6D36214F05AF879
:103DB00089F31188BFF36F8F0323184602DF0523B1
:103DC0000A4A38782146FFF7E7F8B307D9D563697F
:103DD000A4F8108013FA85F5E560BDE8F88300BF0C
:103DE000CBE20100ECE2010046D8010044D1010021
:103DF00038B5044612F0CCFA227E012A05D0032AF7
:103E000014D12046FFF798F80BE0E368187814F017
:103E100089FBC207054602D52046FFF79FFFAB0787
:103E2000EFD4002412F002FB204638BD044845219F
:103E300014F08FF820460DF027FB6FF01504F1E722
:103E400062E60100084A0346D2F8680130B9D96831
:103E500039B1596929B1C2F8683170476FF07700FC
:103E600070476FF01500704700000020F7B5244C34
:103E70002448254D254F042114F066FBE279244B9C
:103E80002046012A88BF1D46FEF7D0FE2A4603467B
:103E90004921204814F05DF826460125E3799D422A
:103EA00006F1070620DB94F870502846FFF7E4FD82
:103EB000B4F876300193B4F87230009302462B4682
:103EC0004921154814F045F894F871502846FFF739
:103ED000D3FDB4F87430009302462B460F484921B5
:103EE00014F037F803B0F0BD3046FEF79FFE2A46C7
:103EF00003464921384614F02CF80135CEE700BFBF
:103F000000000020D40000205A03020093E60100C4
:103F10007BE601007FE60100A9E60100ECE6010076
:103F2000F0B5BA4DD5F86831996811F0010187B044
:103F300021D105AA40F60340FFF744FB04460028C0
:103F40006BD10598C3681B789BB9BFF35B8FD5F81D
:103F5000D430BFF35B8F05F1D40203F00903BFF344
:103F60005B8F52E8001F42E80034002CF9D1BFF308
:103F70005B8F0DF089FA05AA002141F20300FFF7DB
:103F800021FB0446002848D1059BA14EDA68D2F8EF
:103F90000100D2F8051003C618460DF075FA214647
:103FA00005AA41F20100FFF70DFB0446A8BB0598E6
:103FB000C3685A7885F870205A88A5F872201A7953
:103FC00085F87120B3F80720A5F87420B3F8053000
:103FD000A5F876300DF058FA214605AA41F2020004
:103FE000FFF7F0FA0446C0B9059FFA68531C413246
:103FF00018685968344603C4083393422646F7D1FB
:1040000038460DF041FA95F87C305E0608D48148B8
:10401000452113F09EFF6FF01204204607B0F0BD5B
:1040200005AA002142F20300FFF7CCFA044600285B
:10403000F3D1059B784EDA68D2F80100D2F805106A
:1040400003C618460DF020FA214605AA42F20200E6
:10405000FFF7B8FA04460028DFD1059CE368B3F8FF
:10406000012091B249B1D97839B1A5F80421DA78A3
:10407000114606F1280018F06BFB20460DF004FAFB
:1040800095F87C601F2316F02006A5F8203118D182
:10409000022140F66D40FFF759FA0446002800F06F
:1040A000A98002210C300DF02FFB01230370467014
:1040B0002146324640F66D40FFF784FA0446002858
:1040C000ABD195F89C301C0712D505AA002142F20D
:1040D0001C00FFF777FA044600289ED10598C368B4
:1040E000D3F80120D3F80530C5E938230DF0CCF919
:1040F00095F8D830980623D50DF1120104A8FFF7E2
:10410000C9FA0446002888D1042142F22400FFF7AE
:104110001DFA064600286DD004210C300DF0F4FA8B
:10412000BDF810300380BDF812304380224631467E
:1041300042F22400FFF746FA044600287FF46DAFF0
:10414000082142F20100FFF701FA0446002851D08D
:1041500008210C300DF0D8FA95F8D82012F0020F93
:1041600014BF2F230F23910695F8D92048BF43F0A1
:10417000400312F0090F18BF43F4006300220370DC
:10418000C3F3072343708270C2700271427182715F
:10419000C271214642F20100FFF714FA04460028DA
:1041A0007FF43BAF95F87C30B5F804119A0624D41F
:1041B000C9B905AA41F20500FFF704FA0446002830
:1041C0007FF42BAFB5F80431059C4BB9E368B3F825
:1041D0000120A5F804219A881048114618F0B8FA71
:1041E00020460DF051F9082140F60140FFF7AEF9E5
:1041F0000446B8B96FF068040FE70029F3D1084806
:10420000452113F0A6FE6FF0040406E7000000202D
:104210007800002018E70100D800002008010020E5
:1042200041E7010008210C300DF06EFA10230370F5
:104230008823437002230022C370202382700271FE
:1042400042718271C371214640F60140FFF7BAF90D
:10425000044600287FF4E1AE014605AA4FF601406E
:10426000FFF7B0F990B13948572113F072FE00F012
:1042700011FB044600287FF4D0AE01F013FE044683
:1042800000287FF4CAAEFFF7F1FDC6E6059E304870
:10429000F468B4F80130032B96BF2E4A2E4A52F828
:1042A0002320492113F055FEB4F80120B4F803305F
:1042B000022A2AD1052B28D8284A52F82320284838
:1042C000492113F046FE6379D4F809100291032BBB
:1042D000B4F8071098BF234A0191A17994BF52F80E
:1042E00023201D4A20480091492113F032FE304618
:1042F0000DF0CAF805AA00214FF60240FFF762F957
:10430000044620B119485721AFE7134AD7E705986B
:10431000C368B3F80130A5F8C1300DF0B5F895F8D1
:10432000C1305B07A3D505AA21464FF60340FFF72E
:1043300049F910B10E48572197E70598C3685B7893
:1043400085F8C0300DF0A0F891E700BF69E70100E3
:1043500092E7010034D10100CEE501001CD101003B
:10436000B0E701000CD10100CDE70100FFE701003B
:104370002DE8010010B5FFF7D3FD034B1B6813B107
:10438000BDE81040184710BD1810002070B5334D1F
:10439000D5F8683188B0064643B93148452113F055
:1043A000D8FD6FF01204204608B070BD6FF0020116
:1043B00005F1D40014F0D7F8012114F0C5F810EA83
:1043C000010447D1274B1E600A4605F5947018F08A
:1043D000BFF905F5A67018F095F900220023CDE984
:1043E00006236FF00803CDE90243CDE900441E4BDC
:1043F0001E4904944FF440721D4811F0FBFA1D4908
:104400001B4818F022FA1C4811F05AF81B491A48A8
:1044100000946FF007034FF4966211F067F81849A3
:10442000154818F012FAD5F86831DB689847044649
:1044300028B102464521134813F08BFDB3E726B996
:1044400008B0BDE87040FFF76BBD05F1C40010F087
:10445000C1FFA8E76FF07704A5E700BF00000020C8
:104460005BE8010018100020113C0000C030002063
:10447000D007002079E80100500800200034002017
:104480007FE8010088E80100044BBFF35B8F1868E8
:10449000BFF35B8FC0F38000704700BFD4000020E3
:1044A00000487047A9E80100F8B50A4DEF790646C3
:1044B0000024E3B29F4202D86FF0010007E02946D2
:1044C000304614F01CF90735631C08B12046F8BDCE
:1044D0001C46EEE70000002070B5194E062231465A
:1044E000054618F0D4FA28B3062142F20500FFF77A
:1044F0002DF8044600B3062229460C3017F0F1FED1
:104500002146002242F20500FFF75CF8044640B164
:1045100010F10D0F03D10B48572113F01AFD20465F
:1045200070BD33462A6843F86929AA88B2800122FF
:1045300083F868200024F2E76FF06804EFE700BF1B
:1045400069000020C0E9010037B504460D4689B175
:104550001849284614F0D3F860B9174A2968C4EB03
:10456000C404A3181151AA889A80AA799A710020CC
:1045700003B030BD684613F0B8FF0028F8D1684694
:10458000FFF792FF0028F5DA0B4A00989DF8061015
:10459000C4EBC404A3181051BDF8040098809971AD
:1045A000002DE4D012592A609A88AA809B79AB71B9
:1045B000DDE700BF7CE001000000002070B504468C
:1045C000A9B9B8B11F4914F09AF898B92046FFF775
:1045D0006BFF002830DA2378012B04D1A37903F094
:1045E000C003C02B06D01848452113F0B2FC6FF071
:1045F000150070BD154DEB79012B20D0BFF35B8FFB
:10460000D5F8D430BFF35B8FDB0707D4002CEED096
:104610000C49204614F073F80028E8D1EE792146C1
:10462000731C3046EB71FFF78FFF08B93046E0E7A7
:10463000EB79013BEB71DCE76FF07700D9E76FF0C6
:104640000B00D6E77CE00100D4E901000000002067
:104650002DE9F341044638B91A48572113F079FC83
:10466000002002B0BDE8F08101AA002141F209005A
:10467000FEF7A8FF054610B113485721EEE7019E4B
:104680001249D6F80C8008F101070622384618F0C6
:10469000FEF928B10E490622384618F0F8F918B983
:1046A00030460CF0F1FEDBE7D8F80130C4F80130F9
:1046B000BB88A4F80530304625700CF0E5FE0120DB
:1046C000CFE700BF07EA010025EA010089E0010009
:1046D00083E0010007B56846FFF7BAFF044BD871C5
:1046E00018B169460020FFF72FFF03B05DF804FB07
:1046F00000000020F0B5304DEC7989B0002C54D189
:1047000095F8C26016F001060FD12C48572113F01E
:1047100020FCEC71162600240127EB79E0B28342DD
:104720002ED8002B41D000203DE06A4621464FF6AE
:104730000940FEF747FF10B121485721E7E7DDF8B0
:1047400000C0DCF80C104B782BB960460CF09CFED6
:104750001C485721DBE78B1C02AA01F112041868E0
:104760005968174603C70833A3423A46F7D1186879
:1047700038609B88BB8060460CF086FE3446C8E7F4
:1047800008AB06FB0033694653F8182C33F8143C89
:10479000CDF80120ADF805308DF80070FFF7D4FE9C
:1047A00001340028B9D009B0F0BD0021084609B095
:1047B000BDE8F040FFF702BF0000002048EA01001A
:1047C00079EA01009EEA01002DE9F04190460E468B
:1047D0001D46024648B143B13103047810D5730732
:1047E00007D52A48452113F0B4FB6FF01500BDE84A
:1047F000F08113F099FF0028F9D101232B702EE0EE
:10480000F7072ED5224FB8F1000F13D0B0060AD407
:10481000C4EBC403FB5C012B11D02B70B2061ED578
:1048200043F00203EAE797F8D8305906F0D46FF066
:104830008500DCE7C4EBC403FB5C012BDED1072160
:1048400001FB04710131104613F066FF0028CED140
:10485000C4EBC4043B5D2B70B8F1000FDED1002027
:10486000C5E773070ED50A4EC4EBC407F35D012BF1
:10487000C4D1072111FB0431314413F04DFFF35D26
:104880002B70B4E713F050FF0123F9E7CCEA0100E5
:104890000000002038B5104DEB7913B100242046FC
:1048A00038BDFFF717FF044620B10C48452113F02F
:1048B00050FBF4E7EB79002BF0D1FFF71BFF044628
:1048C0000028F2D1681CFFF707FE04460028E5D057
:1048D00003484521EBE700BF00000020F0EA01009B
:1048E00014EB01002DE9F74F0C4620210090924671
:1048F000FEF72CFE0546002854D020210C300CF089
:1049000003FF20220021814618F052F909F1010B22
:1049100004EBCA0A0026D4F80080002362689342A0
:104920000CD30834A245F6D1009889F80060002223
:10493000294603B0BDE8F04FFEF744BE98F80120C9
:1049400098F800C0B01C81181F2914D9BCF1090FB8
:10495000C0F11F0201D1002A0BDC1448452113F0DD
:10496000F8FA28460CF090FD6FF0150003B0BDE892
:10497000F08F4FF0080CD7B2791C0BF80610711CA1
:10498000C9B25BFA80F00BF801C0D8F804100193AB
:10499000023718F0FFF8019B3744FEB2013308F1EB
:1049A0000808BBE76FF06800E0E700BF3CEB0100E0
:1049B000F8B545686905064635D4046914B115F0A3
:1049C000010330D0194F3078FB7983422BD9C0EBEB
:1049D000C00017490722384418F059F8A8B115F05B
:1049E000010306D197F87020082A02D8B2689F2ADE
:1049F00019D915F0300F09D0ACB1EA060AD405F484
:104A00006035B5F5603018BF0120F8BDEB0601D464
:104A1000002CF4D1D6E902239A4204D81F2A02D9E5
:104A2000B3F5804FEBD90020EFE700BF0000002076
:104A30007CE0010008B504490722093018F027F886
:104A4000003818BF012008BD7CE00100F8B5154B07
:104A5000067883F86F6004460D46FFF7EBFF70B9E8
:104A60001149304601F03EF8044610B96FF00B00D2
:104A7000F8BD052100F01EFE2C600020F8E704F1CF
:104A800009073946304601F063F840B920783946C5
:104A900001F028F804460028E8D00621EAE76FF084
:104AA0001500E5E70000002075E0010000487047B0
:104AB000180000202DE9F04FD1F810908DB09A46E3
:104AC0000023B9EB030605469348059218BF01265B
:104AD000079313F053FE0C46410740F11181204625
:104AE000FFF766FF28B96FF0150B58460DB0BDE80B
:104AF000F08F204613F02FFE80460028F3D005F1FA
:104B00001007384613F03AFE0206C0F3C01300F156
:104B1000FA80CDE90933CDF82B30A3686068ADF891
:104B20002030E368ADF8223013F019FE6FF4005125
:104B30008DF82D00784813F027FE784A23782B70E3
:104B400082F86F3061680DF1250332462846FFF781
:104B50003BFE83460028C8D105F10903B9F1000FD7
:104B600018D021690868C5F8090088889880897973
:104B70009971204613F0A5FE63680646D8071BD43A
:104B80009A0503D4169B0BB9022E5BD102238DF834
:104B9000243023E0624A1168C5F80910918892799F
:104BA00099809A71204613F08CFE6368D9070646F7
:104BB000E6D58DF8249011E013F0100F0CBF0123FF
:104BC00004238DF8243023691968CDF826109988BC
:104BD000ADF82A109B798DF82C30D8460F2142F27F
:104BE0000600FEF7B3FC8346002800F08F800F22FA
:104BF00008A90C3017F075FB0022594642F2060056
:104C0000FEF7E0FC002840F08480B9F1000F1FD0CF
:104C10006368DB072AD42846012113F062FE079D52
:104C20008346002864D03F48452113F092F9002DB7
:104C30003FF45BAF2846002100F03CFD284600F021
:104C4000DDFC52E70323DDF858808DF82430C5E7FA
:104C5000179B0093CDE90186169B0599524628467D
:104C600013F0B8FD83460028D2D03EE707A92846B6
:104C7000FFF7ECFE83460028CDD010F10C0F7FF437
:104C800034AFB9F1000F7FF430AF636898073FF598
:104C90002CAF626882F00202C2F3400B0BF00102FB
:104CA0000E21384613F07FFD731E5A425A410821E7
:104CB000384613F078FDB11E4A424A413846092170
:104CC00013F071FD62680A2102F00102384613F008
:104CD0006AFD42460B21384613F065FD62680D21DE
:104CE000C2F38002384613F05EFD4FF0000BFCE685
:104CF00015B1284600F082FCB9F1000FCED1C8E70B
:104D00006FF00A0BF1E66FF0770BEEE66FF0680BD1
:104D1000EBE68346E9E600BFD40000200000002057
:104D20007CE001005AEB010073B51546069A0C466B
:104D3000CDE900322B460A4601461148FFF7BAFE7C
:104D400021460646002340F201109D4202D1304622
:104D500002B070BD0A88824204D14A6812B112784A
:104D6000D20702D401330831EFE70649064810F0B4
:104D700023FC4FF470220023034810F00BFDE6E7FC
:104D800018000020054E00003000002010B5194822
:104D900013F0CCFD18486FF4804113F0F5FC164871
:104DA00013F0ECFC03461A06C0F3C01021D51248DC
:104DB00013F0E4FC430513D50E48FFF73BFE0F4903
:104DC0000346087E93B90E49052200F0E5FE04462D
:104DD00030B10021417200F06DFC204600F00EFC65
:104DE000BDE810400348002113F07BBD06222131AD
:104DF000EBE710BD18000020280000200000002074
:104E000075E0010008B5FFF7C1FF024628B1BDE813
:104E100008400248572113F09CB808BD7AEB010006
:104E200073B53448334C13F0A9FC10F4804F37D0DD
:104E3000204613F0A3FC030632D4204613F09EFC58
:104E400046052DD501A9A4F11000FFF7FFFD38BBE1
:104E5000A4F11000FFF7EEFD0246204613F08EFC91
:104E6000C0F38031204613F089FC81F00101450533
:104E70004FEA41011F4848BF41F0010113F07EFC99
:104E8000800448BF41F004011B480DF10303FFF704
:104E90009BFC054630B102464521184813F059F8ED
:104EA00002B070BD1448012113F01BFD019E28B90A
:104EB000304602B0BDE8704000F0A0BB2946304645
:104EC00000F0F8FB6FF480410A4813F05DFC0546E2
:104ED000304600F093FB6B04E2D5BFF35B8F54E8E0
:104EE000003F43F4804344E80032002AF7D1BFF387
:104EF0005B8FD5E728000020180000209EEB010002
:104F000070B5114B1D68044675B9104D104EB54271
:104F100018D91049104840F2746212F0A3FF0D48EE
:104F200040F2746112F095FF2B6813B1617A20464C
:104F300098476D69E8E72B6813B1617A2046984776
:104F40001835E4E7F7D370BD4C10002024CE0100E3
:104F500024CE0100E0EB010046D801002DE9F84322
:104F6000044617F035FE1C4B1A581C4B9A4212D1BE
:104F7000DFF86C804FF020090025EFF3118389F3EF
:104F80001288BFF36F8F216A71B983F31188BFF361
:104F90006F8FBDE8F88313491348D82212F062FFDF
:104FA0001048D82112F055FF606A0A6822628142D7
:104FB00008BF626283F31188BFF36F8FD1E9016785
:104FC000CD60C1E90155404617F0A9FB00223946E2
:104FD0002046B047D1E700BF08000000700E002057
:104FE000A8050020E0EB010046D8010010B50446FA
:104FF00017F0EEFD114B1A58114B9A428AB005D1A9
:1050000020460AB0BDE81040FFF7A8BF283420466C
:1050100010F0E0F900280ADA0A490B484FF4C5728B
:1050200012F020FF07484FF4C57112F012FF6946D5
:10503000204610F0D5F90AB010BD00BF08000000EE
:10504000700E0020E0EB010046D8010070B5044668
:1050500041B90D490D48482212F004FF0A48482181
:1050600012F0F7FED1E901560022C1E90122CA601F
:10507000074817F054FB314620462B466FF06D026F
:10508000BDE87040184700BFE0EB010046D80100C2
:10509000A80500202DE9F047664F9946B7F804317E
:1050A000002B04460D4607F58470164608BF002005
:1050B000002200230FF03AFE002840F0B480A37ACB
:1050C000072B40F0B380002E7AD006F10C0A504630
:1050D000B7F8048117F0FDF840456BD9B7F80481A3
:1050E00055F80C1F4246504617F0FBF8414628463B
:1050F0000CF0D6FAB569EFF31182202383F31288FE
:10510000BFF36F8F002D66D000232B60A369002BA7
:105110005ED1C4E905554FF0000882F31188BFF352
:105120006F8F042106F10C000CF09EFA238809F021
:10513000FD0943EA0939A0F80090338A043B438013
:10514000022333763046FEF7B5FC88B3024645218C
:10515000394812F0FEFEEFF31181202383F3128809
:10516000BFF36F8F002D4CD0636900225BB19D426D
:1051700044D12B68002A3BD1A2696361954200D1DA
:10518000A36100232B6081F31188BFF36F8FB7F801
:1051900004312A48002B08BF00200FF08DFD2DB1EF
:1051A0000023B36129462046FFF750FF6FF004004B
:1051B000BDE8F087504617F08CF81FFA80F88FE7AB
:1051C0000022002304F1380017F075F8064691E735
:1051D0001D60A5619FE7A36933B103F10C08DB688B
:1051E0000133C8F8003098E7E36904F11C08F7E7D9
:1051F0001360A3699D4208BFA261C2E71A461B68FB
:10520000B4E7D8F8003053B90D490E4840F29D225A
:1052100012F028FE0A4840F29D2112F01AFE013BCE
:10522000C8F80030AFE76FF06800C1E76FF07F00AB
:10523000BEE700BF00000020D6E501000801002005
:10524000E0EB010046D801000448B0F80431002B1F
:1052500000F5847008BF0020704700BF00000020E8
:1052600038B5002204468A4202D10024204638BDC7
:1052700004F1C4030120BFF35B8F53E8005F002DEE
:1052800004D143E8000CBCF1000FF6D1BFF35B8FF3
:1052900002D0C8340244E6E7002CE6D0C422002144
:1052A000204617F085FC04F16000044910F084F9F1
:1052B000034904F128000FF08FFFD7E7495C000095
:1052C000338901002DE9F0410446002704F1380636
:1052D00000230022304616F0EEFF034660B96369F2
:1052E000ABB11649164840F2563212F0BBFD40F2FF
:1052F0005631124812F0ADFD9D699F610CF0C4F863
:10530000002DE5D029462046FFF7A0FEDEE7E36941
:1053100043B10A490A4840F2573212F0A3FD40F265
:105320005731E6E7204613F007FB04F16000002246
:10533000BDE8F041002310F02DBA00BFE0EB010002
:1053400046D8010070B5164604460D46FFF74EFEDE
:10535000012E1FD0022E49D1236933B12B4845219C
:1053600012F0F7FD204613F0E7FA256121690A8A59
:10537000012A49D9CB681B8804339BB29A4243D394
:105380003AD92348452112F0E4FD2046BDE870409B
:1053900013F0D2BA206938B91E48452112F0D9FD60
:1053A000204613F0C9FA01E02E8A26B92846BDE846
:1053B00070400CF069B80C3016F08BFF86420BD9A8
:1053C0001548452112F0C5FD21690022204600F054
:1053D0006DFE00232361E9E720692A8AE9680C3021
:1053E00016F07FFF28460CF04FF8BFE70B48324617
:1053F000452112F0AEFDD3E70023236120460122B0
:10540000BDE8704000F052BE70BD00BF10EC01005E
:10541000A4EC010032EC010055EC010081EC01002C
:105420002DE9F743161E0D46097A994614BF02234B
:1054300001239942074608DD2A48452112F089FDDB
:105440006FF0150003B0BDE8F083EA7A072A07D8A9
:10545000AB7A009324480823452112F07AFDEFE748
:10546000837A072B06D02148452112F072FD6FF098
:105470007F00E7E78EB317F0ABFB1D4B1A581D4BAF
:105480009A421D4807BF002200234FF0FF324FF021
:10549000FF330FF0B9FB044608B3BB7A072B4FF07C
:1054A00000080CD01548572112F053FDC4E90188BB
:1054B0001148C4F80C80214617F031F9D7E7C0E94C
:1054C0000169C0F80C80AC61002407F138002C772A
:1054D00029460BF0B9FF2046B4E73446F3E76FF0F6
:1054E0006800AFE7C4EC0100EAEC01001CED01002C
:1054F00008000000700E0020A805002030ED01001B
:1055000070B50446234817F0B6FA224B0022204615
:10551000012111F043FFBFF35B8F1F4B1A68BFF3EC
:105520005B8F04F114000AB9012070BDA3F1C4011E
:1055300013F8BA3C93B9BFF35B8F0B1D53E8002FF0
:1055400022F0400543E80056002EF7D1BFF35B8FF1
:10555000530603D50846FFF7B5FEE5E78B7A072B20
:10556000E2D10E4BB3F80421002ADDD0D3F810218C
:10557000896B51B14AB903F58473022111F00EFF12
:10558000012384F820300220CFE7054B00220421BC
:10559000F4E700BFF0010020B40900200000002063
:1055A0002809002010B550B91249134840F2625240
:1055B00012F058FC0F4840F2625112F04AFCBFF35F
:1055C0005B8FD0F8C430BFF35B8F00F1C4027BB1B6
:1055D000BFF35B8F591C52E8004F9C4204D142E854
:1055E000001CBCF1000FF6D1BFF35B8FE7D110BDFB
:1055F0001846FCE7E0EB010046D80100F7B550B9CA
:105600002749284840F27E5212F02CFC40F27E518D
:10561000234812F01EFC8678C578BFF35B8FC43038
:1056200050E8003F5A1E40E800210029F8D1BFF39E
:105630005B8F0193BFF35B8F019BBFF35B8F019A7D
:10564000002A08DC1649174840F28E5212F00AFC74
:1056500040F28E51DCE7012B20D1134B1C6864B95A
:10566000124C134FBC4212D90D490E4840F215623C
:1056700012F0F8FB40F21561CAE7A36803B198473E
:105680006469ECE7A36803B198471834EAE7F9D3F3
:10569000012E03D1012D01D1FFF7C2FB03B0F0BDF4
:1056A000E0EB010046D801004C10002024CE0100A0
:1056B00024CE01002DE9F041867A8E4204460D4643
:1056C0000BD1082E96BF6B4B6B4A53F826206B48C4
:1056D0005721BDE8F04112F03CBC817226B98378B5
:1056E000082B01D0FFF75EFFA37A082B00F2BE80E3
:1056F000DFE803F027759E9E9E9E9E059E00A37880
:10570000042B00F0958004F1380016F0FBFF5C4894
:10571000002111F063FF0023C4E91533E378012B66
:1057200040F08680A378012B04BF032384F8B430B3
:1057300004F160004FF42032BDE8F04100230FF087
:10574000C3BFA378042B04D12046BDE8F041FFF786
:1057500055BF082E6CD801A353F826F0D757000088
:1057600081570000C9570000C95700004957000081
:1057700049570000C9570000D7570000D75700000D
:105780002046FFF733FCA378012B0AD104F1600512
:10579000284617F052F810F00C0F02D028460FF0F0
:1057A000FFFFBFF35B8F043454E8003F43F0400336
:1057B00044E80032002AF7D1BFF35B8F3048BDE8E0
:1057C000F041002111F00ABF637A002BBCD02046C3
:1057D000FFF796FBB8E72B482A46572179E7637A0B
:1057E0003E2B04D128482246572112F0B2FB274D08
:1057F000202705F58476EFF3118387F31288BFF332
:105800006F8FE26972B1013AE26183F31188BFF3ED
:105810006F8FB5F80431002B14BF304600200FF015
:105820004BFAE8E7616929B983F31188BFF36F8FF9
:10583000BDE8F081A0690A686261814208BFA26187
:1058400083F31188BFF36F8FEFF3118387F312880F
:10585000BFF36F8FCA68E2610022CA6083F31188C8
:10586000BFF36F8F2046FFF7F1FBD2E708482A46C7
:1058700057212EE7D4D101005BED010065ED010059
:10588000F00100207BED010097ED010000000020F9
:10589000C3ED010070B5024605460E460A480121D7
:1058A00013F053F8044610B90024204670BD8378E5
:1058B0001E42FAD105482A46572112F04AFB2046DB
:1058C000FFF79CFEF0E700BFF0080020E4ED0100C8
:1058D0000A4A0B4908B5831ADB10904201FB03F317
:1058E0000AD00849084840F2B35212F0BBFA054802
:1058F00040F2B35112F0ADFAD8B208BDF008002062
:10590000295C8FC2E0EB010046D801002DE9F84385
:105910000F46054690461C461646994616F08FFFE0
:10592000014650B11649174840F2CF5212F09AFA88
:10593000134840F2CF5112F08CFA54EA080408D010
:1059400017F046F9104A114B12589A4204BF0E46FE
:10595000B1460F4932464B46002D14BF2846084633
:1059600016F0A5FC044630B90A48572112F0F1FAA6
:105970002046BDE8F883791D0C300BF059FEF7E79F
:10598000E0EB010046D8010008000000700E002086
:10599000C405002000EE0100F8B5BFF35B8F42683C
:1059A000BFF35B8F9205044600F1040319D5B0F8EC
:1059B000A620B0F8A810914213D8B0F8AA109142CE
:1059C0000FD3D0E92B1291420BD1BFF35B8F53E879
:1059D000001F21F4007143E80012002AF7D1BFF341
:1059E0005B8F164B1D6875B9154D164FBD4222D9F8
:1059F0001549164840F2B96212F034FA124840F2E2
:105A0000B96112F026FA2E693EB1B4F8AE30B4F89E
:105A1000AC20B4F8A6102046B0476D69E3E72E69C4
:105A20003EB1B4F8AE30B4F8AC20B4F8A6102046BD
:105A3000B0471835DAE7F2D3F8BD00BF4C100020AC
:105A400024CE010024CE0100E0EB010046D8010085
:105A50002DE9F041074608460C4612F0F4FD0546D4
:105A600018B900252846BDE8F081194B1E687EB99B
:105A7000184EDFF86480464523D91849184840F28B
:105A8000FB6212F0EFF9154840F2FB6112F0E1F908
:105A9000F3680BB97669EAE721463846984700284B
:105AA000DFD0204612F0CFFD0028F3D1D9E7214600
:105AB000384698470028D4D0204612F0C4FD20B9BB
:105AC000CFE7CFD2F368002BF1D11836D3E700BF70
:105AD0004C10002024CE010024CE0100E0EB010098
